{
  "abi": [
    {
      "anonymous": false,
      "inputs": [
        {
          "indexed": true,
          "internalType": "uint256",
          "name": "groupId",
          "type": "uint256"
        }
      ],
      "name": "AllInvitesAccepted",
      "type": "event"
    },
    {
      "anonymous": false,
      "inputs": [
        {
          "indexed": false,
          "internalType": "uint8",
          "name": "version",
          "type": "uint8"
        }
      ],
      "name": "Initialized",
      "type": "event"
    },
    {
      "anonymous": false,
      "inputs": [
        {
          "indexed": true,
          "internalType": "uint256",
          "name": "groupId",
          "type": "uint256"
        },
        {
          "indexed": true,
          "internalType": "address",
          "name": "creator",
          "type": "address"
        },
        {
          "indexed": true,
          "internalType": "address",
          "name": "participant",
          "type": "address"
        }
      ],
      "name": "Invite",
      "type": "event"
    },
    {
      "anonymous": false,
      "inputs": [
        {
          "indexed": true,
          "internalType": "bytes32",
          "name": "role",
          "type": "bytes32"
        },
        {
          "indexed": true,
          "internalType": "bytes32",
          "name": "previousAdminRole",
          "type": "bytes32"
        },
        {
          "indexed": true,
          "internalType": "bytes32",
          "name": "newAdminRole",
          "type": "bytes32"
        }
      ],
      "name": "RoleAdminChanged",
      "type": "event"
    },
    {
      "anonymous": false,
      "inputs": [
        {
          "indexed": true,
          "internalType": "bytes32",
          "name": "role",
          "type": "bytes32"
        },
        {
          "indexed": true,
          "internalType": "address",
          "name": "account",
          "type": "address"
        },
        {
          "indexed": true,
          "internalType": "address",
          "name": "sender",
          "type": "address"
        }
      ],
      "name": "RoleGranted",
      "type": "event"
    },
    {
      "anonymous": false,
      "inputs": [
        {
          "indexed": true,
          "internalType": "bytes32",
          "name": "role",
          "type": "bytes32"
        },
        {
          "indexed": true,
          "internalType": "address",
          "name": "account",
          "type": "address"
        },
        {
          "indexed": true,
          "internalType": "address",
          "name": "sender",
          "type": "address"
        }
      ],
      "name": "RoleRevoked",
      "type": "event"
    },
    {
      "anonymous": false,
      "inputs": [
        {
          "indexed": true,
          "internalType": "uint256",
          "name": "groupId",
          "type": "uint256"
        },
        {
          "indexed": true,
          "internalType": "address",
          "name": "sender",
          "type": "address"
        },
        {
          "indexed": false,
          "internalType": "bytes",
          "name": "encryptedMessage",
          "type": "bytes"
        }
      ],
      "name": "SendMessage",
      "type": "event"
    },
    {
      "inputs": [],
      "name": "DEFAULT_ADMIN_ROLE",
      "outputs": [
        {
          "internalType": "bytes32",
          "name": "",
          "type": "bytes32"
        }
      ],
      "stateMutability": "view",
      "type": "function"
    },
    {
      "inputs": [],
      "name": "PEBBLE_ADMIN_ROLE",
      "outputs": [
        {
          "internalType": "bytes32",
          "name": "",
          "type": "bytes32"
        }
      ],
      "stateMutability": "view",
      "type": "function"
    },
    {
      "inputs": [],
      "name": "PEBBLE_DELEGATEE_ROLE",
      "outputs": [
        {
          "internalType": "bytes32",
          "name": "",
          "type": "bytes32"
        }
      ],
      "stateMutability": "view",
      "type": "function"
    },
    {
      "inputs": [
        {
          "internalType": "uint256",
          "name": "_groupId",
          "type": "uint256"
        },
        {
          "internalType": "address[]",
          "name": "_penultimateKeysFor",
          "type": "address[]"
        },
        {
          "internalType": "uint256[]",
          "name": "_penultimateKeysXUpdated",
          "type": "uint256[]"
        },
        {
          "internalType": "uint256[]",
          "name": "_penultimateKeysYUpdated",
          "type": "uint256[]"
        },
        {
          "internalType": "uint256",
          "name": "_timestampForWhichUpdatedKeysAreMeant",
          "type": "uint256"
        }
      ],
      "name": "acceptGroupInvite",
      "outputs": [],
      "stateMutability": "nonpayable",
      "type": "function"
    },
    {
      "inputs": [
        {
          "internalType": "uint256",
          "name": "_groupId",
          "type": "uint256"
        },
        {
          "internalType": "address",
          "name": "_groupParticipant",
          "type": "address"
        },
        {
          "internalType": "address[]",
          "name": "_penultimateKeysFor",
          "type": "address[]"
        },
        {
          "internalType": "uint256[]",
          "name": "_penultimateKeysXUpdated",
          "type": "uint256[]"
        },
        {
          "internalType": "uint256[]",
          "name": "_penultimateKeysYUpdated",
          "type": "uint256[]"
        },
        {
          "internalType": "uint256",
          "name": "_timestampForWhichUpdatedKeysAreMeant",
          "type": "uint256"
        },
        {
          "internalType": "uint256",
          "name": "_groupParticipantDelegatorNonce",
          "type": "uint256"
        },
        {
          "internalType": "bytes",
          "name": "_signatureFromGroupParticipant",
          "type": "bytes"
        }
      ],
      "name": "acceptGroupInviteForDelegator",
      "outputs": [],
      "stateMutability": "nonpayable",
      "type": "function"
    },
    {
      "inputs": [
        {
          "internalType": "uint256",
          "name": "_groupId",
          "type": "uint256"
        },
        {
          "internalType": "address",
          "name": "_groupParticipant",
          "type": "address"
        },
        {
          "internalType": "address[]",
          "name": "_penultimateKeysFor",
          "type": "address[]"
        },
        {
          "internalType": "uint256[]",
          "name": "_penultimateKeysXUpdated",
          "type": "uint256[]"
        },
        {
          "internalType": "uint256[]",
          "name": "_penultimateKeysYUpdated",
          "type": "uint256[]"
        },
        {
          "internalType": "uint256",
          "name": "_timestampForWhichUpdatedKeysAreMeant",
          "type": "uint256"
        },
        {
          "internalType": "uint256",
          "name": "_groupParticipantDelegatorNonce",
          "type": "uint256"
        },
        {
          "internalType": "uint8",
          "name": "_signatureFromGroupParticipant_v",
          "type": "uint8"
        },
        {
          "internalType": "bytes32",
          "name": "_signatureFromGroupParticipant_r",
          "type": "bytes32"
        },
        {
          "internalType": "bytes32",
          "name": "_signatureFromGroupParticipant_s",
          "type": "bytes32"
        }
      ],
      "name": "acceptGroupInviteForDelegator",
      "outputs": [],
      "stateMutability": "nonpayable",
      "type": "function"
    },
    {
      "inputs": [
        {
          "internalType": "address[]",
          "name": "_groupParticipantsOtherThanCreator",
          "type": "address[]"
        },
        {
          "internalType": "uint256",
          "name": "_initialPenultimateSharedKeyForCreatorX",
          "type": "uint256"
        },
        {
          "internalType": "uint256",
          "name": "_initialPenultimateSharedKeyForCreatorY",
          "type": "uint256"
        },
        {
          "internalType": "uint256",
          "name": "_initialPenultimateSharedKeyFromCreatorX",
          "type": "uint256"
        },
        {
          "internalType": "uint256",
          "name": "_initialPenultimateSharedKeyFromCreatorY",
          "type": "uint256"
        }
      ],
      "name": "createGroup",
      "outputs": [
        {
          "internalType": "uint256",
          "name": "groupId",
          "type": "uint256"
        }
      ],
      "stateMutability": "nonpayable",
      "type": "function"
    },
    {
      "inputs": [
        {
          "internalType": "address",
          "name": "_groupCreator",
          "type": "address"
        },
        {
          "internalType": "address[]",
          "name": "_groupParticipantsOtherThanCreator",
          "type": "address[]"
        },
        {
          "internalType": "uint256",
          "name": "_initialPenultimateSharedKeyForCreatorX",
          "type": "uint256"
        },
        {
          "internalType": "uint256",
          "name": "_initialPenultimateSharedKeyForCreatorY",
          "type": "uint256"
        },
        {
          "internalType": "uint256",
          "name": "_initialPenultimateSharedKeyFromCreatorX",
          "type": "uint256"
        },
        {
          "internalType": "uint256",
          "name": "_initialPenultimateSharedKeyFromCreatorY",
          "type": "uint256"
        },
        {
          "internalType": "uint256",
          "name": "_groupCreatorDelegatorNonce",
          "type": "uint256"
        },
        {
          "internalType": "bytes",
          "name": "_signatureFromDelegator",
          "type": "bytes"
        }
      ],
      "name": "createGroupForDelegator",
      "outputs": [
        {
          "internalType": "uint256",
          "name": "groupId",
          "type": "uint256"
        }
      ],
      "stateMutability": "nonpayable",
      "type": "function"
    },
    {
      "inputs": [
        {
          "internalType": "address",
          "name": "_groupCreator",
          "type": "address"
        },
        {
          "internalType": "address[]",
          "name": "_groupParticipantsOtherThanCreator",
          "type": "address[]"
        },
        {
          "internalType": "uint256",
          "name": "_initialPenultimateSharedKeyForCreatorX",
          "type": "uint256"
        },
        {
          "internalType": "uint256",
          "name": "_initialPenultimateSharedKeyForCreatorY",
          "type": "uint256"
        },
        {
          "internalType": "uint256",
          "name": "_initialPenultimateSharedKeyFromCreatorX",
          "type": "uint256"
        },
        {
          "internalType": "uint256",
          "name": "_initialPenultimateSharedKeyFromCreatorY",
          "type": "uint256"
        },
        {
          "internalType": "uint256",
          "name": "_groupCreatorDelegatorNonce",
          "type": "uint256"
        },
        {
          "internalType": "uint8",
          "name": "_signatureFromDelegator_v",
          "type": "uint8"
        },
        {
          "internalType": "bytes32",
          "name": "_signatureFromDelegator_r",
          "type": "bytes32"
        },
        {
          "internalType": "bytes32",
          "name": "_signatureFromDelegator_s",
          "type": "bytes32"
        }
      ],
      "name": "createGroupForDelegator",
      "outputs": [
        {
          "internalType": "uint256",
          "name": "groupId",
          "type": "uint256"
        }
      ],
      "stateMutability": "nonpayable",
      "type": "function"
    },
    {
      "inputs": [
        {
          "internalType": "uint256",
          "name": "_groupId",
          "type": "uint256"
        },
        {
          "internalType": "address",
          "name": "_participant",
          "type": "address"
        }
      ],
      "name": "didParticipantAcceptGroupInvite",
      "outputs": [
        {
          "internalType": "bool",
          "name": "",
          "type": "bool"
        }
      ],
      "stateMutability": "view",
      "type": "function"
    },
    {
      "inputs": [
        {
          "internalType": "address",
          "name": "_delegator",
          "type": "address"
        }
      ],
      "name": "getDelegatorNonce",
      "outputs": [
        {
          "internalType": "uint256",
          "name": "nonce",
          "type": "uint256"
        }
      ],
      "stateMutability": "view",
      "type": "function"
    },
    {
      "inputs": [
        {
          "internalType": "uint256",
          "name": "_groupId",
          "type": "uint256"
        }
      ],
      "name": "getGroupPenultimateSharedKeyLastUpdateTimestamp",
      "outputs": [
        {
          "internalType": "uint256",
          "name": "timestamp",
          "type": "uint256"
        }
      ],
      "stateMutability": "view",
      "type": "function"
    },
    {
      "inputs": [
        {
          "internalType": "uint256",
          "name": "_groupId",
          "type": "uint256"
        }
      ],
      "name": "getOtherGroupParticipants",
      "outputs": [
        {
          "internalType": "address[]",
          "name": "otherParticipants",
          "type": "address[]"
        }
      ],
      "stateMutability": "view",
      "type": "function"
    },
    {
      "inputs": [
        {
          "internalType": "uint256",
          "name": "_groupId",
          "type": "uint256"
        },
        {
          "internalType": "address",
          "name": "_groupParticipant",
          "type": "address"
        }
      ],
      "name": "getParticipantGroupPenultimateSharedKey",
      "outputs": [
        {
          "internalType": "uint256",
          "name": "penultimateSharedKeyX",
          "type": "uint256"
        },
        {
          "internalType": "uint256",
          "name": "penultimateSharedKeyY",
          "type": "uint256"
        }
      ],
      "stateMutability": "view",
      "type": "function"
    },
    {
      "inputs": [
        {
          "internalType": "uint256",
          "name": "_groupId",
          "type": "uint256"
        },
        {
          "internalType": "address[]",
          "name": "_groupParticipants",
          "type": "address[]"
        }
      ],
      "name": "getParticipantsGroupPenultimateSharedKey",
      "outputs": [
        {
          "internalType": "uint256[]",
          "name": "penultimateSharedKeysX",
          "type": "uint256[]"
        },
        {
          "internalType": "uint256[]",
          "name": "penultimateSharedKeysY",
          "type": "uint256[]"
        }
      ],
      "stateMutability": "view",
      "type": "function"
    },
    {
      "inputs": [
        {
          "internalType": "bytes32",
          "name": "role",
          "type": "bytes32"
        }
      ],
      "name": "getRoleAdmin",
      "outputs": [
        {
          "internalType": "bytes32",
          "name": "",
          "type": "bytes32"
        }
      ],
      "stateMutability": "view",
      "type": "function"
    },
    {
      "inputs": [],
      "name": "getVersion",
      "outputs": [
        {
          "internalType": "string",
          "name": "",
          "type": "string"
        }
      ],
      "stateMutability": "pure",
      "type": "function"
    },
    {
      "inputs": [
        {
          "internalType": "address",
          "name": "_pebbleAdminNew",
          "type": "address"
        }
      ],
      "name": "grantPebbleAdminRole",
      "outputs": [],
      "stateMutability": "nonpayable",
      "type": "function"
    },
    {
      "inputs": [
        {
          "internalType": "address",
          "name": "_delegateeNew",
          "type": "address"
        }
      ],
      "name": "grantPebbleDelegateeRole",
      "outputs": [],
      "stateMutability": "nonpayable",
      "type": "function"
    },
    {
      "inputs": [
        {
          "internalType": "bytes32",
          "name": "role",
          "type": "bytes32"
        },
        {
          "internalType": "address",
          "name": "account",
          "type": "address"
        }
      ],
      "name": "grantRole",
      "outputs": [],
      "stateMutability": "nonpayable",
      "type": "function"
    },
    {
      "inputs": [
        {
          "internalType": "bytes32",
          "name": "role",
          "type": "bytes32"
        },
        {
          "internalType": "address",
          "name": "account",
          "type": "address"
        }
      ],
      "name": "hasRole",
      "outputs": [
        {
          "internalType": "bool",
          "name": "",
          "type": "bool"
        }
      ],
      "stateMutability": "view",
      "type": "function"
    },
    {
      "inputs": [
        {
          "internalType": "bytes32",
          "name": "role",
          "type": "bytes32"
        },
        {
          "internalType": "address",
          "name": "account",
          "type": "address"
        }
      ],
      "name": "renounceRole",
      "outputs": [],
      "stateMutability": "nonpayable",
      "type": "function"
    },
    {
      "inputs": [
        {
          "internalType": "address",
          "name": "_pebbleAdminToRevoke",
          "type": "address"
        }
      ],
      "name": "revokePebbleAdminRole",
      "outputs": [],
      "stateMutability": "nonpayable",
      "type": "function"
    },
    {
      "inputs": [
        {
          "internalType": "address",
          "name": "_delegateeToRevoke",
          "type": "address"
        }
      ],
      "name": "revokePebbleDelegateeRole",
      "outputs": [],
      "stateMutability": "nonpayable",
      "type": "function"
    },
    {
      "inputs": [
        {
          "internalType": "bytes32",
          "name": "role",
          "type": "bytes32"
        },
        {
          "internalType": "address",
          "name": "account",
          "type": "address"
        }
      ],
      "name": "revokeRole",
      "outputs": [],
      "stateMutability": "nonpayable",
      "type": "function"
    },
    {
      "inputs": [
        {
          "internalType": "uint256",
          "name": "_groupId",
          "type": "uint256"
        },
        {
          "internalType": "bytes",
          "name": "_encryptedMessage",
          "type": "bytes"
        }
      ],
      "name": "sendMessageInGroup",
      "outputs": [],
      "stateMutability": "nonpayable",
      "type": "function"
    },
    {
      "inputs": [
        {
          "internalType": "uint256",
          "name": "_groupId",
          "type": "uint256"
        },
        {
          "internalType": "address",
          "name": "_sender",
          "type": "address"
        },
        {
          "internalType": "bytes",
          "name": "_encryptedMessage",
          "type": "bytes"
        },
        {
          "internalType": "uint256",
          "name": "_senderDelegatorNonce",
          "type": "uint256"
        },
        {
          "internalType": "uint8",
          "name": "_signatureFromSender_v",
          "type": "uint8"
        },
        {
          "internalType": "bytes32",
          "name": "_signatureFromSender_r",
          "type": "bytes32"
        },
        {
          "internalType": "bytes32",
          "name": "_signatureFromSender_s",
          "type": "bytes32"
        }
      ],
      "name": "sendMessageInGroupForDelegator",
      "outputs": [],
      "stateMutability": "nonpayable",
      "type": "function"
    },
    {
      "inputs": [
        {
          "internalType": "uint256",
          "name": "_groupId",
          "type": "uint256"
        },
        {
          "internalType": "address",
          "name": "_sender",
          "type": "address"
        },
        {
          "internalType": "bytes",
          "name": "_encryptedMessage",
          "type": "bytes"
        },
        {
          "internalType": "uint256",
          "name": "_senderDelegatorNonce",
          "type": "uint256"
        },
        {
          "internalType": "bytes",
          "name": "_signatureFromSender",
          "type": "bytes"
        }
      ],
      "name": "sendMessageInGroupForDelegator",
      "outputs": [],
      "stateMutability": "nonpayable",
      "type": "function"
    },
    {
      "inputs": [
        {
          "internalType": "bytes4",
          "name": "interfaceId",
          "type": "bytes4"
        }
      ],
      "name": "supportsInterface",
      "outputs": [
        {
          "internalType": "bool",
          "name": "",
          "type": "bool"
        }
      ],
      "stateMutability": "view",
      "type": "function"
    }
  ],
  "bytecode": {
    "object": "0x60808060405234610016576127e7908161001c8239f35b600080fdfe60406080815260048036101561001457600080fd5b600091823560e01c806211e0371461102a5780624fd16814610fe357806301ffc9a714610f8d5780630d5399d514610ef85780630d8e6e2c14610dbf578063102b54ca14610d1e57806317ad43b614610cf85780631d63e3b814610ccb578063248a9ca314610ca057806325ccdaf714610b805780632958cdf614610ac45780632f2ff15d14610a1757806336568abe146109855780633bb5d660146108d35780636ab6cd6c1461087c57806378f3689b1461078a5780638bd03cdb146106ad57806391d1485414610666578063a217fddf1461064b578063a558a16f146105d3578063ace4fba4146105b6578063b50888ae14610578578063bae504351461049c578063c9776e6b1461045d578063d547741f14610423578063ec18284d146102da578063f0f270861461029e578063f45dd5b2146102765763fa855a021461015d57600080fd5b346102725760203660031901126102725761018a823561018561018033836122f7565b611f18565b61228a565b80516020909101518051946001600160a01b039283169491906101ac876111ae565b956101b98651978861118d565b8787526101c5886111ae565b6020880190601f19013682378294338303610246575b5050505b8681106101f7578451806101f388826112cd565b0390f35b33846102038385611708565b511603610219575b610214906116e3565b6101df565b9161023e610214918561022c8686611708565b5116610238828a611708565b526116e3565b92905061020b565b909192945087511561025f5750526001913880806101db565b634e487b7160e01b855260329052602484fd5b8280fd5b83823461029a578160031936011261029a57602090610293611295565b9051908152f35b5080fd5b5091346102d757826003193601126102d757506102c4906102bd61105b565b9035612535565b6020815191015182519182526020820152f35b80fd5b50503461029a5761014036600319011261029a578035906102f961105b565b6001600160401b0360443581811161041f576103189036908501611111565b939060643583811161041b576103319036908401611111565b9290936084359081116104175761034a91369101611111565b93909160a4359660c43561035c6110b9565b90610365611257565b61036e90611311565b806103788a611cdb565b1461038290611a12565b878b61038f3686886111c5565b928c8c61039d368d8c611eca565b61012435968c610104359736906103b392611eca565b926103bd96612418565b926103c793611c4c565b6103d090611afa565b6103e7906001600160a01b03898116911614611aae565b36906103f2926111c5565b9236906103fe92611eca565b92369061040a92611eca565b9261041495611fa6565b80f35b8880fd5b8780fd5b8580fd5b50346102725780600319360112610272576104149135610458600161044661105b565b93838752606560205286200154611311565b611646565b83823461029a57602036600319011261029a576104149061047c611076565b90610458600161048a611257565b92838752606560205286200154611311565b50503461029a5760a036600319011261029a5780356104b961105b565b6001600160401b0360443581811161041f576104d8903690860161108c565b6064359560843593841161041b5761055861055061052961054a886105428c61052f6104149e61051161056b9a6105729e36910161108c565b97909561052461051f611257565b611311565b611cdb565b14611a12565b8c8c61053c368c8e611a68565b916126e2565b923691611a68565b90611c14565b919091611afa565b6001600160a01b03868116911614611aae565b3691611a68565b916125da565b50346102725736600319011261029a57602435906001600160401b038211610272576105ad61056b610414933690840161108c565b903390356125da565b83823461029a578160031936011261029a57602090610293611257565b5082346102d75760a03660031901126102d7578235906001600160401b0382116102d7575061060a60209361029392369101611111565b9061064584519161061a83611141565b60243583526044358784015285519361063285611141565b60643585526084358886015236916111c5565b3361171c565b83823461029a578160031936011261029a5751908152602090f35b5090346102725781600319360112610272578160209360ff9261068761105b565b90358252606586528282206001600160a01b039091168252855220549151911615158152f35b5082346102d757816003193601126102d7578235926024356001600160401b038111610272573660238201121561027257908160246106f1933693013591016111c5565b80516106fc816125a8565b94610706826125a8565b9285519461071386611141565b808652806020809701525b838110610749578651878152806101f3888861073c848d018e611223565b9184830390850152611223565b6107859061076a6001600160a01b036107628386611708565b511685612535565b87815191015161077a8389611708565b52610238828b611708565b61071e565b50903461027257610140366003190112610272576107a6611076565b92602435906001600160401b0382116102d75750926107cd61029392602095369101611111565b916108766044359260643594608435809661084b61083861055086868a6108338d60a435809a8a60c435936108006110b9565b9661080c61051f611257565b6108198661052983611cdb565b61082d610124359a610104359a36916111c5565b90611d22565b611c4c565b6001600160a01b03888116911614611aae565b89519661085788611141565b87528a87015288519661086988611141565b87528987015236916111c5565b9061171c565b83823461029a57602036600319011261029a5760209181906001600160a01b036108a4611076565b1681527f6e6fd72fa6bc337bb5cda754173b8a247151b73bb8c5caa8cd3ff5cc0fb5d639845220549051908152f35b83823461029a5760209081600319360112610272576108f0611076565b906108f9611295565b928385526065815261091060018387200154611311565b838552606581528185206001600160a01b039093168086529281528185205460ff161561093b578480f35b8385526065815281852083865290528320805460ff1916600117905533917f2f8788117e7eff1d82e926ec794901d17c78024a50270940304540a733656f0d8480a4818080808480f35b5091903461029a578260031936011261029a576109a061105b565b90336001600160a01b038316036109bc57906104149135611646565b608490602085519162461bcd60e51b8352820152602f60248201527f416363657373436f6e74726f6c3a2063616e206f6e6c792072656e6f756e636560448201526e103937b632b9903337b91039b2b63360891b6064820152fd5b5090346102725781600319360112610272573590610a3361105b565b908284526065602052610a4b60018286200154611311565b828452606560209081528185206001600160a01b039093168086529290528084205460ff1615610a79578380f35b82845260656020528084208285526020528320600160ff1982541617905533917f2f8788117e7eff1d82e926ec794901d17c78024a50270940304540a733656f0d8480a43880808380f35b5090346102725761010036600319011261027257610ae0611076565b6001600160401b03919060243583811161041f57610b019036908401611111565b604435936064356084359660a4359260c4359160e435908111610b7c5760209b506108386105508861054a896105426102939f9e9d9c9a988f8f908f9c6108769f9d928d9361082d610b5a849f61084b9f36910161108c565b9b9099610b6861051f611257565b610b758961052986611cdb565b36916111c5565b8b80fd5b50503461029a5761010036600319011261029a578035610b9e61105b565b906001600160401b0360443581811161041f57610bbe9036908601611111565b94909360643583811161041b57610bd89036908401611111565b9290608435858111610c9c57610bf19036908401611111565b95909160a4359860c4359060e435938411610c98578b610b75610c7f6105506104149f8f8f918f8f998f93610c929f958f93610c719f9d8f97610c699f8f9a97610c7161054a9b610c69610c4e6105429c610c799636910161108c565b9f909d610c5c61051f611257565b610b758d6105298a611cdb565b953691611eca565b943691611eca565b93612418565b6001600160a01b038a8116911614611aae565b93611fa6565b8c80fd5b8980fd5b5090346102725760203660031901126102725781602093600192358152606585522001549051908152f35b83823461029a57602036600319011261029a5761041490610cea611076565b90610458600161048a611295565b83823461029a576020908160031936011261027257610d15611076565b906108f9611257565b50503461029a5760a036600319011261029a576001600160401b0390602435828111610dbb57610d519036908301611111565b60449291923584811161041f57610d6b9036908401611111565b90606435958611610db757610da2610dae91610d9a610d906104149936908901611111565b98909636916111c5565b933691611eca565b92608435953691611eca565b92339035611fa6565b8680fd5b8380fd5b5082346102d757806003193601126102d757815191817f521e4caddd81fbdd5f556a9ab5c2a4923bf4e6832e3978f3ad043ffaf5444a6880549360019085821c92828716968715610eee575b6020978886108114610edb57899a509789979886829b529182600014610eb1575050600114610e56575b85886101f389610e47848a038561118d565b519282849384528301906110ec565b815286935091907f20f063e71c073277a37d060f904028265ae654567b12df4d619f78a29be0123f5b828410610e995750505082010181610e476101f388610e35565b8054848a018601528895508794909301928101610e7f565b60ff19168882015294151560051b87019094019450859350610e4792506101f39150899050610e35565b634e487b7160e01b845260228b52602484fd5b93607f1693610e0b565b50503461029a5760e036600319011261029a578035610f1561105b565b91604435906001600160401b038211610f8957610f349136910161108c565b60643593916084359160ff83168303610db75761056b6105586105506105729561041499610f6361051f611257565b610f70816105298b611cdb565b60c4359161083360a435928c8c61053c8c8c3691611a68565b8480fd5b50903461027257602036600319011261027257359063ffffffff60e01b82168092036102725760209250637965db0b60e01b8214918215610fd2575b50519015158152f35b6301ffc9a760e01b14915038610fc9565b5090346102725760203660031901126102725760209282913581527f8471e74ec79a6a627ffb068d56c3a7a2ba329d4f8f6ad48361f5ab97a723e976845220549051908152f35b5082346102d757816003193601126102d7575061105260209261104b61105b565b903561237a565b90519015158152f35b602435906001600160a01b038216820361107157565b600080fd5b600435906001600160a01b038216820361107157565b9181601f84011215611071578235916001600160401b038311611071576020838186019501011161107157565b60e4359060ff8216820361107157565b60005b8381106110dc5750506000910152565b81810151838201526020016110cc565b90602091611105815180928185528580860191016110c9565b601f01601f1916010190565b9181601f84011215611071578235916001600160401b038311611071576020808501948460051b01011161107157565b604081019081106001600160401b0382111761115c57604052565b634e487b7160e01b600052604160045260246000fd5b60c081019081106001600160401b0382111761115c57604052565b90601f801991011681019081106001600160401b0382111761115c57604052565b6001600160401b03811161115c5760051b60200190565b92916111d0826111ae565b916111de604051938461118d565b829481845260208094019160051b810192831161107157905b8282106112045750505050565b81356001600160a01b03811681036110715781529083019083016111f7565b90815180825260208080930193019160005b828110611243575050505090565b835185529381019392810192600101611235565b60405160208101907f504542424c453a504542424c455f44454c4547415445455f524f4c45000000008252601c815261128f81611141565b51902090565b60405160208101907f504542424c453a504542424c455f41444d494e5f524f4c45000000000000000082526018815261128f81611141565b6020908160408183019282815285518094520193019160005b8281106112f4575050505090565b83516001600160a01b0316855293810193928101926001016112e6565b60009080825260209060658252604092838120338252835260ff84822054161561133b5750505050565b8351916001600160401b0390336060850183811186821017611632578752602a8552858501918736843785511561161e576030835385519160019283101561160a576078602188015360295b8381116115a0575061155e579087519360808501908582109082111761154a57885260428452868401946060368737845115611536576030865384518210156115365790607860218601536041915b8183116114c857505050611486576114829386936114669361145760489461142e9a519a8b957f416363657373436f6e74726f6c3a206163636f756e74200000000000000000008c88015251809260378801906110c9565b8401917001034b99036b4b9b9b4b733903937b6329607d1b6037840152518093868401906110c9565b0103602881018752018561118d565b5192839262461bcd60e51b8452600484015260248301906110ec565b0390fd5b60648587519062461bcd60e51b825280600483015260248201527f537472696e67733a20686578206c656e67746820696e73756666696369656e746044820152fd5b909192600f81166010811015611522576f181899199a1a9b1b9c1cb0b131b232b360811b901a6114f885886116bc565b5360041c92801561150e576000190191906113d6565b634e487b7160e01b82526011600452602482fd5b634e487b7160e01b83526032600452602483fd5b634e487b7160e01b81526032600452602490fd5b634e487b7160e01b86526041600452602486fd5b60648789519062461bcd60e51b825280600483015260248201527f537472696e67733a20686578206c656e67746820696e73756666696369656e746044820152fd5b90600f811660108110156115f6576f181899199a1a9b1b9c1cb0b131b232b360811b901a6115ce838a6116bc565b5360041c9080156115e25760001901611387565b634e487b7160e01b87526011600452602487fd5b634e487b7160e01b88526032600452602488fd5b634e487b7160e01b86526032600452602486fd5b634e487b7160e01b85526032600452602485fd5b634e487b7160e01b85526041600452602485fd5b906000918083526065602052604083209160018060a01b03169182845260205260ff60408420541661167757505050565b8083526065602052604083208284526020526040832060ff1981541690557ff6391f5c32d9c69d2a47ea670b442974b53935d1edc7fd64eb21e047a839171b339380a4565b9081518110156116cd570160200190565b634e487b7160e01b600052603260045260246000fd5b60001981146116f25760010190565b634e487b7160e01b600052601160045260246000fd5b80518210156116cd5760209160051b010190565b939290916040519061172d82611141565b60018060a01b03918287169283825260209283830198878a527fcbc90404f5748a4e0e21546cf38f673bbc89035de34da94799a80032c0f7c237948554956001908188019055869b816000978989527f5d742fe17b690a6a54263c739da28c9f2a4b4ea30a4a18760a88124d555ecba685528760408a209151166bffffffffffffffffffffffff60a01b825416178155019051908151916001600160401b0383116119ae576801000000000000000083116119ae5784908254848455808510611984575b5001908852838820885b8381106119715750505050506118168351828501519061274c565b156119075761182a8851828a01519061274c565b1561189d57509061183b91856119c2565b855195825b878110611851575050505050505050565b80836118606118989385611708565b511661186d8982896119c2565b87877fafdc90d17ca56b4356a578de0a136010326c69040edf668e0bd0cbb2a6b1d2658880a46116e3565b611840565b6084906040519062461bcd60e51b82526004820152604060248201527f504542424c453a20494e495449414c2050454e554c54494d415445205348415260448201527f4544204b45592046524f4d2043524541544f52204e4f54204f4e2043555256456064820152fd5b6084906040519062461bcd60e51b82526004820152603f60248201527f504542424c453a20494e495449414c2050454e554c54494d415445205348415260448201527f4544204b455920464f522043524541544f52204e4f54204f4e204355525645006064820152fd5b82518916828201559185019184016117fb565b838b528585848d2092830192015b8281106119a05750506117f1565b8c8155889450879101611992565b634e487b7160e01b89526041600452602489fd5b6000527fa9a3ac95344d2a0ca55bce67458270eda4f955247d37307c289a5ad533dd553560205260406000209060018060a01b031660005260205260016020604060002092805184550151910155565b15611a1957565b60405162461bcd60e51b815260206004820152602160248201527f504542424c453a2044454c454741544f52204e4f4e434520494e434f525245436044820152601560fa1b6064820152608490fd5b9291926001600160401b03821161115c5760405191611a91601f8201601f19166020018461118d565b829481845281830111611071578281602093846000960137010152565b15611ab557565b60405162461bcd60e51b815260206004820152601b60248201527f504542424c453a20494e434f5252454354205349474e415455524500000000006044820152606490fd5b6005811015611bfe5780611b0b5750565b60018103611b585760405162461bcd60e51b815260206004820152601860248201527f45434453413a20696e76616c6964207369676e617475726500000000000000006044820152606490fd5b60028103611ba55760405162461bcd60e51b815260206004820152601f60248201527f45434453413a20696e76616c6964207369676e6174757265206c656e677468006044820152606490fd5b600314611bae57565b60405162461bcd60e51b815260206004820152602260248201527f45434453413a20696e76616c6964207369676e6174757265202773272076616c604482015261756560f01b6064820152608490fd5b634e487b7160e01b600052602160045260246000fd5b906041815114600014611c4257611c3e916020820151906060604084015193015160001a90611c4c565b9091565b5050600090600290565b9291907f7fffffffffffffffffffffffffffffff5d576e7357a4501ddfe92f46681b20a08311611ccf5791608094939160ff602094604051948552168484015260408301526060820152600093849182805260015afa15611cc25781516001600160a01b03811615611cbc579190565b50600190565b50604051903d90823e3d90fd5b50505050600090600390565b6001600160a01b031660009081527f6e6fd72fa6bc337bb5cda754173b8a247151b73bb8c5caa8cd3ff5cc0fb5d6396020526040902080549190611d1e836116e3565b9055565b949093959295604096875195602096611d5081611d428a820194856112cd565b03601f19810183528261118d565b519020938851878101918252878152611d6881611141565b519020908851878101918252878152611d8081611141565b519020918851878101918252878152611d9881611141565b519020928851878101918252878152611db081611141565b519020938851968701977f4b67d9822586986e9743bb3e472c4d12b803dc51dfa2126f28827c04df19ae27895260018060a01b0316898801526060870152608086015260a085015260c084015260e08301526101009081830152815261012081018181106001600160401b0382111761115c57611e309352519020611e33565b90565b6098546099546040519060208201927f8b73c3c69bb8fe3d512ecc4cf759cc79239f7b179b0ffacaa9a75d522b39400f8452604083015260608201524660808201523060a082015260a08152611e8881611172565b5190209060405190602082019261190160f01b84526022830152604282015260428152608081018181106001600160401b0382111761115c5760405251902090565b9291611ed5826111ae565b91611ee3604051938461118d565b829481845260208094019160051b810192831161107157905b828210611f095750505050565b81358152908301908301611efc565b15611f1f57565b60405162461bcd60e51b81526020600482015260136024820152721411509093114e881393d50812539592551151606a1b6044820152606490fd5b15611f6157565b60405162461bcd60e51b815260206004820152601e60248201527f504542424c453a20494e434f5252454354204152524159204c454e47544800006044820152606490fd5b9492909193611fb861018084886122f7565b611fc2838761237a565b6121eb57845190611fd583518314611f5a565b611fe181518314611f5a565b602092611ffb84611ff18a61228a565b0151518414611f5a565b6000968888527f8471e74ec79a6a627ffb068d56c3a7a2ba329d4f8f6ad48361f5ab97a723e976808652604097888a2054036121955789895285524287892055875b8481106120bd5750505086865250507fdfde4fefba3f40b65db95f7d7b78bb7912d49bd3522f16b3080c777b834b7c7f81528284206001600160a01b0390921684525281206001905561208f826123c1565b612097575050565b807f592e3c6fdace72f3e6734c2c8db1148eaa911deabf73f1758bacc04a7850987791a2565b6120dc6120ca8285611708565b516120d58387611708565b519061274c565b15612135576121309061212b6001600160a01b036120fa8386611708565b51166121068387611708565b51906121128489611708565b518c519261211f84611141565b83528a8301528d6119c2565b6116e3565b61203d565b875162461bcd60e51b815260048101879052603360248201527f504542424c453a20555044415445442050454e554c54494d41544520534841526044820152724544204b4559204e4f54204f4e20435552564560681b6064820152608490fd5b875162461bcd60e51b815260048101879052602960248201527f504542424c453a204b45592055504441544553204241534544204f4e2045585060448201526849524544204441544160b81b6064820152608490fd5b60405162461bcd60e51b815260206004820152601f60248201527f504542424c453a20414c524541445920414343455054454420494e56495445006044820152606490fd5b9060405191828154918282526020928383019160005283600020936000905b828210612267575050506122659250038361118d565b565b85546001600160a01b03168452600195860195889550938101939091019061224f565b6060602060405161229a81611141565b6000815201526000527f5d742fe17b690a6a54263c739da28c9f2a4b4ea30a4a18760a88124d555ecba660205260406000206122ef6001604051926122de84611141565b818060a01b03815416845201612230565b602082015290565b6000527f5d742fe17b690a6a54263c739da28c9f2a4b4ea30a4a18760a88124d555ecba6602052600161232f81604060002001612230565b9182519260005b848110612347575050505050600090565b6001600160a01b038061235a8385611708565b5116908416146123725761236d906116e3565b612336565b505050905090565b6000527fdfde4fefba3f40b65db95f7d7b78bb7912d49bd3522f16b3080c777b834b7c7f60205260406000209060018060a01b031660005260205260016040600020541490565b60206123cc8261228a565b015190815191600091825b8481106123e8575050505050600190565b6124056001600160a01b036123fd8386611708565b51168361237a565b1561237257612413906116e3565b6123d7565b949192959093956040968751918260209687820190612436916112cd565b0396601f1997888101855261244b908561118d565b8951809288808301528b820161246091611223565b038881018352612470908361118d565b8951809388808301528b820161248591611223565b038881018452612495908461118d565b895198899788019a7f813d001b4985725ee02ccd187e6788edf8e1409087a6d008738f68cd8c55d2848c52880152600160a01b600190031660608701526101009283608088015261012087016124ea916110ec565b878782030160a08801526124fd916110ec565b868682030160c0870152612510916110ec565b9260e0850152830152039081018252612529908261118d565b519020611e3090611e33565b604091602091835161254681611141565b6000808252930183905282527fa9a3ac95344d2a0ca55bce67458270eda4f955247d37307c289a5ad533dd553560209081528383206001600160a01b03909216835252206040519060019061259a83611141565b805483520154602082015290565b906125b2826111ae565b6125bf604051918261118d565b82815280926125d0601f19916111ae565b0190602036910137565b906125e4826123c1565b15612685576125f3818361237a565b156126415760405160208082526001600160a01b03909216937fa66d2acaa4ab888d29c2bea69414e474640889068bbaf164893c163da74902e792829161263c918301906110ec565b0390a3565b606460405162461bcd60e51b815260206004820152602060248201527f504542424c453a2053454e444552204e4f542041205041525449434950414e546044820152fd5b60405162461bcd60e51b815260206004820152602f60248201527f504542424c453a205041525449434950414e54532059455420544f204143434560448201526e50542047524f555020494e5649544560881b6064820152608490fd5b9192611e3093602081519101206040519260208401947f612cc3a826ba90c4d0901e72e7a72686217029ace0aeacdb35a763b9ba49cf828652604085015260018060a01b03166060840152608083015260a082015260a0815261274481611172565b519020611e33565b801580156127a1575b8015612799575b8015612789575b612782576007906401000003d019918282818181950909089180091490565b5050600090565b506401000003d019821015612763565b50811561275c565b506401000003d01981101561275556fea2646970667358221220941f93206b7393e6b239d028d804a6b8aea78f86592a7a47b8a25a383804f45a64736f6c63430008110033",
    "linkReferences": {}
  },
  "methodIdentifiers": {
    "DEFAULT_ADMIN_ROLE()": "a217fddf",
    "PEBBLE_ADMIN_ROLE()": "f45dd5b2",
    "PEBBLE_DELEGATEE_ROLE()": "ace4fba4",
    "acceptGroupInvite(uint256,address[],uint256[],uint256[],uint256)": "102b54ca",
    "acceptGroupInviteForDelegator(uint256,address,address[],uint256[],uint256[],uint256,uint256,bytes)": "25ccdaf7",
    "acceptGroupInviteForDelegator(uint256,address,address[],uint256[],uint256[],uint256,uint256,uint8,bytes32,bytes32)": "ec18284d",
    "createGroup(address[],uint256,uint256,uint256,uint256)": "a558a16f",
    "createGroupForDelegator(address,address[],uint256,uint256,uint256,uint256,uint256,bytes)": "2958cdf6",
    "createGroupForDelegator(address,address[],uint256,uint256,uint256,uint256,uint256,uint8,bytes32,bytes32)": "78f3689b",
    "didParticipantAcceptGroupInvite(uint256,address)": "0011e037",
    "getDelegatorNonce(address)": "6ab6cd6c",
    "getGroupPenultimateSharedKeyLastUpdateTimestamp(uint256)": "004fd168",
    "getOtherGroupParticipants(uint256)": "fa855a02",
    "getParticipantGroupPenultimateSharedKey(uint256,address)": "f0f27086",
    "getParticipantsGroupPenultimateSharedKey(uint256,address[])": "8bd03cdb",
    "getRoleAdmin(bytes32)": "248a9ca3",
    "getVersion()": "0d8e6e2c",
    "grantPebbleAdminRole(address)": "3bb5d660",
    "grantPebbleDelegateeRole(address)": "17ad43b6",
    "grantRole(bytes32,address)": "2f2ff15d",
    "hasRole(bytes32,address)": "91d14854",
    "renounceRole(bytes32,address)": "36568abe",
    "revokePebbleAdminRole(address)": "1d63e3b8",
    "revokePebbleDelegateeRole(address)": "c9776e6b",
    "revokeRole(bytes32,address)": "d547741f",
    "sendMessageInGroup(uint256,bytes)": "b50888ae",
    "sendMessageInGroupForDelegator(uint256,address,bytes,uint256,bytes)": "bae50435",
    "sendMessageInGroupForDelegator(uint256,address,bytes,uint256,uint8,bytes32,bytes32)": "0d5399d5",
    "supportsInterface(bytes4)": "01ffc9a7"
  },
  "id": 30
}