{
  "abi": [
    {
      "inputs": [],
      "stateMutability": "nonpayable",
      "type": "constructor"
    },
    {
      "anonymous": false,
      "inputs": [
        {
          "indexed": false,
          "internalType": "address",
          "name": "previousAdmin",
          "type": "address"
        },
        {
          "indexed": false,
          "internalType": "address",
          "name": "newAdmin",
          "type": "address"
        }
      ],
      "name": "AdminChanged",
      "type": "event"
    },
    {
      "anonymous": false,
      "inputs": [
        {
          "indexed": true,
          "internalType": "address",
          "name": "beacon",
          "type": "address"
        }
      ],
      "name": "BeaconUpgraded",
      "type": "event"
    },
    {
      "anonymous": false,
      "inputs": [
        {
          "indexed": false,
          "internalType": "uint8",
          "name": "version",
          "type": "uint8"
        }
      ],
      "name": "Initialized",
      "type": "event"
    },
    {
      "anonymous": false,
      "inputs": [
        {
          "indexed": true,
          "internalType": "bytes32",
          "name": "role",
          "type": "bytes32"
        },
        {
          "indexed": true,
          "internalType": "bytes32",
          "name": "previousAdminRole",
          "type": "bytes32"
        },
        {
          "indexed": true,
          "internalType": "bytes32",
          "name": "newAdminRole",
          "type": "bytes32"
        }
      ],
      "name": "RoleAdminChanged",
      "type": "event"
    },
    {
      "anonymous": false,
      "inputs": [
        {
          "indexed": true,
          "internalType": "bytes32",
          "name": "role",
          "type": "bytes32"
        },
        {
          "indexed": true,
          "internalType": "address",
          "name": "account",
          "type": "address"
        },
        {
          "indexed": true,
          "internalType": "address",
          "name": "sender",
          "type": "address"
        }
      ],
      "name": "RoleGranted",
      "type": "event"
    },
    {
      "anonymous": false,
      "inputs": [
        {
          "indexed": true,
          "internalType": "bytes32",
          "name": "role",
          "type": "bytes32"
        },
        {
          "indexed": true,
          "internalType": "address",
          "name": "account",
          "type": "address"
        },
        {
          "indexed": true,
          "internalType": "address",
          "name": "sender",
          "type": "address"
        }
      ],
      "name": "RoleRevoked",
      "type": "event"
    },
    {
      "anonymous": false,
      "inputs": [
        {
          "indexed": true,
          "internalType": "address",
          "name": "implementation",
          "type": "address"
        }
      ],
      "name": "Upgraded",
      "type": "event"
    },
    {
      "inputs": [],
      "name": "DEFAULT_ADMIN_ROLE",
      "outputs": [
        {
          "internalType": "bytes32",
          "name": "",
          "type": "bytes32"
        }
      ],
      "stateMutability": "view",
      "type": "function"
    },
    {
      "inputs": [],
      "name": "PEBBLE_ADMIN_ROLE",
      "outputs": [
        {
          "internalType": "bytes32",
          "name": "",
          "type": "bytes32"
        }
      ],
      "stateMutability": "view",
      "type": "function"
    },
    {
      "inputs": [],
      "name": "PEBBLE_DELEGATEE_ROLE",
      "outputs": [
        {
          "internalType": "bytes32",
          "name": "",
          "type": "bytes32"
        }
      ],
      "stateMutability": "view",
      "type": "function"
    },
    {
      "inputs": [
        {
          "internalType": "bytes32",
          "name": "role",
          "type": "bytes32"
        }
      ],
      "name": "getRoleAdmin",
      "outputs": [
        {
          "internalType": "bytes32",
          "name": "",
          "type": "bytes32"
        }
      ],
      "stateMutability": "view",
      "type": "function"
    },
    {
      "inputs": [
        {
          "internalType": "address",
          "name": "_pebbleAdminNew",
          "type": "address"
        }
      ],
      "name": "grantPebbleAdminRole",
      "outputs": [],
      "stateMutability": "nonpayable",
      "type": "function"
    },
    {
      "inputs": [
        {
          "internalType": "address",
          "name": "_delegateeNew",
          "type": "address"
        }
      ],
      "name": "grantPebbleDelegateeRole",
      "outputs": [],
      "stateMutability": "nonpayable",
      "type": "function"
    },
    {
      "inputs": [
        {
          "internalType": "bytes32",
          "name": "role",
          "type": "bytes32"
        },
        {
          "internalType": "address",
          "name": "account",
          "type": "address"
        }
      ],
      "name": "grantRole",
      "outputs": [],
      "stateMutability": "nonpayable",
      "type": "function"
    },
    {
      "inputs": [
        {
          "internalType": "bytes32",
          "name": "role",
          "type": "bytes32"
        },
        {
          "internalType": "address",
          "name": "account",
          "type": "address"
        }
      ],
      "name": "hasRole",
      "outputs": [
        {
          "internalType": "bool",
          "name": "",
          "type": "bool"
        }
      ],
      "stateMutability": "view",
      "type": "function"
    },
    {
      "inputs": [],
      "name": "proxiableUUID",
      "outputs": [
        {
          "internalType": "bytes32",
          "name": "",
          "type": "bytes32"
        }
      ],
      "stateMutability": "view",
      "type": "function"
    },
    {
      "inputs": [
        {
          "internalType": "bytes32",
          "name": "role",
          "type": "bytes32"
        },
        {
          "internalType": "address",
          "name": "account",
          "type": "address"
        }
      ],
      "name": "renounceRole",
      "outputs": [],
      "stateMutability": "nonpayable",
      "type": "function"
    },
    {
      "inputs": [
        {
          "internalType": "address",
          "name": "_pebbleAdminToRevoke",
          "type": "address"
        }
      ],
      "name": "revokePebbleAdminRole",
      "outputs": [],
      "stateMutability": "nonpayable",
      "type": "function"
    },
    {
      "inputs": [
        {
          "internalType": "address",
          "name": "_delegateeToRevoke",
          "type": "address"
        }
      ],
      "name": "revokePebbleDelegateeRole",
      "outputs": [],
      "stateMutability": "nonpayable",
      "type": "function"
    },
    {
      "inputs": [
        {
          "internalType": "bytes32",
          "name": "role",
          "type": "bytes32"
        },
        {
          "internalType": "address",
          "name": "account",
          "type": "address"
        }
      ],
      "name": "revokeRole",
      "outputs": [],
      "stateMutability": "nonpayable",
      "type": "function"
    },
    {
      "inputs": [
        {
          "internalType": "bytes4",
          "name": "interfaceId",
          "type": "bytes4"
        }
      ],
      "name": "supportsInterface",
      "outputs": [
        {
          "internalType": "bool",
          "name": "",
          "type": "bool"
        }
      ],
      "stateMutability": "view",
      "type": "function"
    },
    {
      "inputs": [
        {
          "internalType": "address",
          "name": "newImplementation",
          "type": "address"
        }
      ],
      "name": "upgradeTo",
      "outputs": [],
      "stateMutability": "nonpayable",
      "type": "function"
    },
    {
      "inputs": [
        {
          "internalType": "address",
          "name": "newImplementation",
          "type": "address"
        },
        {
          "internalType": "bytes",
          "name": "data",
          "type": "bytes"
        }
      ],
      "name": "upgradeToAndCall",
      "outputs": [],
      "stateMutability": "payable",
      "type": "function"
    }
  ],
  "bytecode": {
    "object": "0x60a080604052346100dc57306080526000549060ff8260081c1661008a575060ff8082161061004f575b6040516112e190816100e282396080518181816102120152818161033d015261070c0152f35b60ff90811916176000557f7f26b83ff96e1f2b6a682f133852f6798a09c465da95921460cefb3847402498602060405160ff8152a138610029565b62461bcd60e51b815260206004820152602760248201527f496e697469616c697a61626c653a20636f6e747261637420697320696e697469604482015266616c697a696e6760c81b6064820152608490fd5b600080fdfe608060408181526004918236101561001657600080fd5b600092833560e01c91826301ffc9a714610b805750816317ad43b614610b5a5781631d63e3b814610b2d578163248a9ca314610b025781632f2ff15d14610a5557816336568abe146109c35781633659cfe6146106e55781633bb5d660146106335781634f1ef286146102c257816352d1902d146101fc57816391d14854146101b5578163a217fddf1461019a578163ace4fba41461017d578163c9776e6b1461013e578163d547741f146100fb575063f45dd5b2146100d557600080fd5b346100f757816003193601126100f7576020906100f0610cce565b9051908152f35b5080fd5b9190503461013a578060031936011261013a5761013791356101326001610120610bee565b93838752606560205286200154610d06565b611064565b80f35b8280fd5b5050346100f75760203660031901126100f7576101379061015d610bd3565b90610132600161016b610c90565b92838752606560205286200154610d06565b5050346100f757816003193601126100f7576020906100f0610c90565b5050346100f757816003193601126100f75751908152602090f35b90503461013a578160031936011261013a578160209360ff926101d6610bee565b90358252606586528282206001600160a01b039091168252855220549151911615158152f35b905082346102bf57806003193601126102bf57507f00000000000000000000000000000000000000000000000000000000000000006001600160a01b03163003610257576020825160008051602061128c8339815191528152f35b6020608492519162461bcd60e51b8352820152603860248201527f555550535570677261646561626c653a206d757374206e6f742062652063616c60448201527f6c6564207468726f7567682064656c656761746563616c6c00000000000000006064820152fd5b80fd5b9180915060031936011261013a576102d8610bd3565b9160249182359067ffffffffffffffff821161062f573660238301121561062f578183013561030681610c74565b61031283519182610c52565b81815287602094858301933689828401011161013a5780898893018637830101526001600160a01b037f000000000000000000000000000000000000000000000000000000000000000081169061036b308314156110da565b61038860008051602061128c83398151915292828454161461113b565b610398610393610cce565b610d06565b7f4910fdfa16fed3260ed0e7147f7cc6da11a60208b5b9406d12a635614ffd91435460ff16156103d35750505050505050506101379061119c565b88959799949698169086516352d1902d60e01b815288818b81865afa8691816105fc575b5061045557875162461bcd60e51b8152808b018a9052602e818d01527f45524331393637557067726164653a206e657720696d706c656d656e7461746960448201526d6f6e206973206e6f74205555505360901b6064820152608490fd5b9992949891939599036105aa5761046b8961119c565b8551927fbc7cd75a20ee27fd9adebab32041f755214dbc6bffa90cc0225b39da2e5c2d3b8980a28351158015906105a2575b6104ae575b50505050505050905080f35b883b156105545750505093809581926105339651915af43d1561054157660819985a5b195960ca1b3d926104e184610c74565b936104ee82519586610c52565b84523d878686013e5b7f416464726573733a206c6f772d6c6576656c2064656c65676174652063616c6c81519561052487610c04565b6027875286015284015261122c565b5080388080808080806104a2565b660819985a5b195960ca1b6060926104f7565b62461bcd60e51b835282018690526026908201527f416464726573733a2064656c65676174652063616c6c20746f206e6f6e2d636f6044820152651b9d1c9858dd60d21b6064820152608490fd5b50600161049d565b60296084928888519362461bcd60e51b85528401528201527f45524331393637557067726164653a20756e737570706f727465642070726f786044820152681a58589b195555525160ba1b6064820152fd5b9091508981813d8311610628575b6106148183610c52565b81010312610624575190386103f7565b8680fd5b503d61060a565b8580fd5b5050346100f7576020908160031936011261013a57610650610bd3565b90610659610cce565b928385526065815261067060018387200154610d06565b838552606581528185206001600160a01b039093168086529281528185205460ff161561069b578480f35b8385526065815281852083865290528320805460ff1916600117905533917f2f8788117e7eff1d82e926ec794901d17c78024a50270940304540a733656f0d8480a4388080808480f35b90503461013a576020806003193601126109bf57610701610bd3565b926001600160a01b037f00000000000000000000000000000000000000000000000000000000000000008116610739308214156110da565b61075660008051602061128c83398151915291838354161461113b565b610761610393610cce565b8251908482019282841067ffffffffffffffff8511176109ac578385528883527f4910fdfa16fed3260ed0e7147f7cc6da11a60208b5b9406d12a635614ffd91435460ff16156107bb57505050505050506101379061119c565b879894959697169085516352d1902d60e01b815287818a81865afa86918161097d575b5061083d57865162461bcd60e51b8152808a01899052602e60248201527f45524331393637557067726164653a206e657720696d706c656d656e7461746960448201526d6f6e206973206e6f74205555505360901b6064820152608490fd5b97919293949703610928576108518861119c565b8451917fbc7cd75a20ee27fd9adebab32041f755214dbc6bffa90cc0225b39da2e5c2d3b8880a2825115801590610921575b610893575b505050505050905080f35b873b156108d257505093809581926108c59651915af43d1561054157660819985a5b195960ca1b3d926104e184610c74565b5080388080808080610888565b62461bcd60e51b82528101859052602660248201527f416464726573733a2064656c65676174652063616c6c20746f206e6f6e2d636f6044820152651b9d1c9858dd60d21b6064820152608490fd5b5086610883565b845162461bcd60e51b8152908101869052602960248201527f45524331393637557067726164653a20756e737570706f727465642070726f786044820152681a58589b195555525160ba1b6064820152608490fd5b9091508881813d83116109a5575b6109958183610c52565b81010312610624575190386107de565b503d61098b565b634e487b7160e01b895260418752602489fd5b8380fd5b839150346100f757826003193601126100f7576109de610bee565b90336001600160a01b038316036109fa57906101379135611064565b608490602085519162461bcd60e51b8352820152602f60248201527f416363657373436f6e74726f6c3a2063616e206f6e6c792072656e6f756e636560448201526e103937b632b9903337b91039b2b63360891b6064820152fd5b90503461013a578160031936011261013a573590610a71610bee565b908284526065602052610a8960018286200154610d06565b828452606560209081528185206001600160a01b039093168086529290528084205460ff1615610ab7578380f35b82845260656020528084208285526020528320600160ff1982541617905533917f2f8788117e7eff1d82e926ec794901d17c78024a50270940304540a733656f0d8480a43880808380f35b90503461013a57602036600319011261013a5781602093600192358152606585522001549051908152f35b5050346100f75760203660031901126100f75761013790610b4c610bd3565b90610132600161016b610cce565b5050346100f7576020908160031936011261013a57610b77610bd3565b90610659610c90565b84913461013a57602036600319011261013a573563ffffffff60e01b811680910361013a5760209250637965db0b60e01b8114908115610bc2575b5015158152f35b6301ffc9a760e01b14905083610bbb565b600435906001600160a01b0382168203610be957565b600080fd5b602435906001600160a01b0382168203610be957565b6060810190811067ffffffffffffffff821117610c2057604052565b634e487b7160e01b600052604160045260246000fd5b6040810190811067ffffffffffffffff821117610c2057604052565b90601f8019910116810190811067ffffffffffffffff821117610c2057604052565b67ffffffffffffffff8111610c2057601f01601f191660200190565b60405160208101907f504542424c453a504542424c455f44454c4547415445455f524f4c45000000008252601c8152610cc881610c36565b51902090565b60405160208101907f504542424c453a504542424c455f41444d494e5f524f4c450000000000000000825260188152610cc881610c36565b600081815260209060658252604092838220338352835260ff848320541615610d2f5750505050565b33908451610d3c81610c04565b602a815284810191863684378151156110015760308353815193600194851015610fed576078602184015360295b858111610f835750610f41578651936080850185811067ffffffffffffffff821117610f2d57885260428552868501956060368837855115610f1957603087538551821015610f195790607860218701536041915b818311610eab57505050610e6957938593610e4f93610e40604894610e177f416363657373436f6e74726f6c3a206163636f756e742000000000000000000099610e659b519a8b978801525180926037880190611015565b8401917001034b99036b4b9b9b4b733903937b6329607d1b603784015251809386840190611015565b01036028810185520183610c52565b5162461bcd60e51b815291829160048301611038565b0390fd5b60648587519062461bcd60e51b825280600483015260248201527f537472696e67733a20686578206c656e67746820696e73756666696369656e746044820152fd5b909192600f81166010811015610f05576f181899199a1a9b1b9c1cb0b131b232b360811b901a610edb8589611264565b5360041c928015610ef157600019019190610dbf565b634e487b7160e01b82526011600452602482fd5b634e487b7160e01b83526032600452602483fd5b634e487b7160e01b81526032600452602490fd5b634e487b7160e01b87526041600452602487fd5b60648688519062461bcd60e51b825280600483015260248201527f537472696e67733a20686578206c656e67746820696e73756666696369656e746044820152fd5b90600f81166010811015610fd9576f181899199a1a9b1b9c1cb0b131b232b360811b901a610fb18386611264565b5360041c908015610fc55760001901610d6a565b634e487b7160e01b87526011600452602487fd5b634e487b7160e01b88526032600452602488fd5b634e487b7160e01b86526032600452602486fd5b634e487b7160e01b85526032600452602485fd5b60005b8381106110285750506000910152565b8181015183820152602001611018565b604091602082526110588151809281602086015260208686019101611015565b601f01601f1916010190565b906000918083526065602052604083209160018060a01b03169182845260205260ff60408420541661109557505050565b8083526065602052604083208284526020526040832060ff1981541690557ff6391f5c32d9c69d2a47ea670b442974b53935d1edc7fd64eb21e047a839171b339380a4565b156110e157565b60405162461bcd60e51b815260206004820152602c60248201527f46756e6374696f6e206d7573742062652063616c6c6564207468726f7567682060448201526b19195b1959d85d1958d85b1b60a21b6064820152608490fd5b1561114257565b60405162461bcd60e51b815260206004820152602c60248201527f46756e6374696f6e206d7573742062652063616c6c6564207468726f7567682060448201526b6163746976652070726f787960a01b6064820152608490fd5b803b156111d15760008051602061128c83398151915280546001600160a01b0319166001600160a01b03909216919091179055565b60405162461bcd60e51b815260206004820152602d60248201527f455243313936373a206e657720696d706c656d656e746174696f6e206973206e60448201526c1bdd08184818dbdb9d1c9858dd609a1b6064820152608490fd5b90919015611238575090565b8151156112485750805190602001fd5b60405162461bcd60e51b8152908190610e659060048301611038565b908151811015611275570160200190565b634e487b7160e01b600052603260045260246000fdfe360894a13ba1a3210667c828492db98dca3e2076cc3735a920a3ca505d382bbca2646970667358221220dda310979360b970270eb73c2dd506f95079697b47e11063da33f5c057510e3e64736f6c63430008110033",
    "linkReferences": {}
  },
  "methodIdentifiers": {
    "DEFAULT_ADMIN_ROLE()": "a217fddf",
    "PEBBLE_ADMIN_ROLE()": "f45dd5b2",
    "PEBBLE_DELEGATEE_ROLE()": "ace4fba4",
    "getRoleAdmin(bytes32)": "248a9ca3",
    "grantPebbleAdminRole(address)": "3bb5d660",
    "grantPebbleDelegateeRole(address)": "17ad43b6",
    "grantRole(bytes32,address)": "2f2ff15d",
    "hasRole(bytes32,address)": "91d14854",
    "proxiableUUID()": "52d1902d",
    "renounceRole(bytes32,address)": "36568abe",
    "revokePebbleAdminRole(address)": "1d63e3b8",
    "revokePebbleDelegateeRole(address)": "c9776e6b",
    "revokeRole(bytes32,address)": "d547741f",
    "supportsInterface(bytes4)": "01ffc9a7",
    "upgradeTo(address)": "3659cfe6",
    "upgradeToAndCall(address,bytes)": "4f1ef286"
  },
  "id": 31
}