{
  "abi": [
    {
      "anonymous": false,
      "inputs": [
        {
          "indexed": false,
          "internalType": "uint8",
          "name": "version",
          "type": "uint8"
        }
      ],
      "name": "Initialized",
      "type": "event"
    },
    {
      "anonymous": false,
      "inputs": [
        {
          "indexed": true,
          "internalType": "bytes32",
          "name": "role",
          "type": "bytes32"
        },
        {
          "indexed": true,
          "internalType": "bytes32",
          "name": "previousAdminRole",
          "type": "bytes32"
        },
        {
          "indexed": true,
          "internalType": "bytes32",
          "name": "newAdminRole",
          "type": "bytes32"
        }
      ],
      "name": "RoleAdminChanged",
      "type": "event"
    },
    {
      "anonymous": false,
      "inputs": [
        {
          "indexed": true,
          "internalType": "bytes32",
          "name": "role",
          "type": "bytes32"
        },
        {
          "indexed": true,
          "internalType": "address",
          "name": "account",
          "type": "address"
        },
        {
          "indexed": true,
          "internalType": "address",
          "name": "sender",
          "type": "address"
        }
      ],
      "name": "RoleGranted",
      "type": "event"
    },
    {
      "anonymous": false,
      "inputs": [
        {
          "indexed": true,
          "internalType": "bytes32",
          "name": "role",
          "type": "bytes32"
        },
        {
          "indexed": true,
          "internalType": "address",
          "name": "account",
          "type": "address"
        },
        {
          "indexed": true,
          "internalType": "address",
          "name": "sender",
          "type": "address"
        }
      ],
      "name": "RoleRevoked",
      "type": "event"
    },
    {
      "inputs": [],
      "name": "DEFAULT_ADMIN_ROLE",
      "outputs": [
        {
          "internalType": "bytes32",
          "name": "",
          "type": "bytes32"
        }
      ],
      "stateMutability": "view",
      "type": "function"
    },
    {
      "inputs": [],
      "name": "PEBBLE_ADMIN_ROLE",
      "outputs": [
        {
          "internalType": "bytes32",
          "name": "",
          "type": "bytes32"
        }
      ],
      "stateMutability": "view",
      "type": "function"
    },
    {
      "inputs": [],
      "name": "PEBBLE_DELEGATEE_ROLE",
      "outputs": [
        {
          "internalType": "bytes32",
          "name": "",
          "type": "bytes32"
        }
      ],
      "stateMutability": "view",
      "type": "function"
    },
    {
      "inputs": [
        {
          "internalType": "address",
          "name": "_delegator",
          "type": "address"
        }
      ],
      "name": "getDelegatorNonce",
      "outputs": [
        {
          "internalType": "uint256",
          "name": "nonce",
          "type": "uint256"
        }
      ],
      "stateMutability": "view",
      "type": "function"
    },
    {
      "inputs": [
        {
          "internalType": "bytes32",
          "name": "role",
          "type": "bytes32"
        }
      ],
      "name": "getRoleAdmin",
      "outputs": [
        {
          "internalType": "bytes32",
          "name": "",
          "type": "bytes32"
        }
      ],
      "stateMutability": "view",
      "type": "function"
    },
    {
      "inputs": [
        {
          "internalType": "address",
          "name": "_pebbleAdminNew",
          "type": "address"
        }
      ],
      "name": "grantPebbleAdminRole",
      "outputs": [],
      "stateMutability": "nonpayable",
      "type": "function"
    },
    {
      "inputs": [
        {
          "internalType": "address",
          "name": "_delegateeNew",
          "type": "address"
        }
      ],
      "name": "grantPebbleDelegateeRole",
      "outputs": [],
      "stateMutability": "nonpayable",
      "type": "function"
    },
    {
      "inputs": [
        {
          "internalType": "bytes32",
          "name": "role",
          "type": "bytes32"
        },
        {
          "internalType": "address",
          "name": "account",
          "type": "address"
        }
      ],
      "name": "grantRole",
      "outputs": [],
      "stateMutability": "nonpayable",
      "type": "function"
    },
    {
      "inputs": [
        {
          "internalType": "bytes32",
          "name": "role",
          "type": "bytes32"
        },
        {
          "internalType": "address",
          "name": "account",
          "type": "address"
        }
      ],
      "name": "hasRole",
      "outputs": [
        {
          "internalType": "bool",
          "name": "",
          "type": "bool"
        }
      ],
      "stateMutability": "view",
      "type": "function"
    },
    {
      "inputs": [
        {
          "internalType": "bytes32",
          "name": "role",
          "type": "bytes32"
        },
        {
          "internalType": "address",
          "name": "account",
          "type": "address"
        }
      ],
      "name": "renounceRole",
      "outputs": [],
      "stateMutability": "nonpayable",
      "type": "function"
    },
    {
      "inputs": [
        {
          "internalType": "address",
          "name": "_pebbleAdminToRevoke",
          "type": "address"
        }
      ],
      "name": "revokePebbleAdminRole",
      "outputs": [],
      "stateMutability": "nonpayable",
      "type": "function"
    },
    {
      "inputs": [
        {
          "internalType": "address",
          "name": "_delegateeToRevoke",
          "type": "address"
        }
      ],
      "name": "revokePebbleDelegateeRole",
      "outputs": [],
      "stateMutability": "nonpayable",
      "type": "function"
    },
    {
      "inputs": [
        {
          "internalType": "bytes32",
          "name": "role",
          "type": "bytes32"
        },
        {
          "internalType": "address",
          "name": "account",
          "type": "address"
        }
      ],
      "name": "revokeRole",
      "outputs": [],
      "stateMutability": "nonpayable",
      "type": "function"
    },
    {
      "inputs": [
        {
          "internalType": "bytes4",
          "name": "interfaceId",
          "type": "bytes4"
        }
      ],
      "name": "supportsInterface",
      "outputs": [
        {
          "internalType": "bool",
          "name": "",
          "type": "bool"
        }
      ],
      "stateMutability": "view",
      "type": "function"
    }
  ],
  "bytecode": {
    "object": "0x60808060405234610016576109f7908161001c8239f35b600080fdfe608060408181526004918236101561001657600080fd5b600092833560e01c91826301ffc9a7146104ac5750816317ad43b6146104865781631d63e3b814610459578163248a9ca31461042e5781632f2ff15d1461038157816336568abe146102ef5781633bb5d6601461023d5781636ab6cd6c146101e657816391d148541461019f578163a217fddf14610184578163ace4fba414610167578163c9776e6b14610128578163d547741f146100e5575063f45dd5b2146100bf57600080fd5b346100e157816003193601126100e1576020906100da6105a0565b9051908152f35b5080fd5b91905034610124578060031936011261012457610121913561011c600161010a61051a565b938387526065602052862001546105d8565b610924565b80f35b8280fd5b5050346100e15760203660031901126100e157610121906101476104ff565b9061011c6001610155610562565b928387526065602052862001546105d8565b5050346100e157816003193601126100e1576020906100da610562565b5050346100e157816003193601126100e15751908152602090f35b9050346101245781600319360112610124578160209360ff926101c061051a565b90358252606586528282206001600160a01b039091168252855220549151911615158152f35b5050346100e15760203660031901126100e15760209181906001600160a01b0361020e6104ff565b1681527f6e6fd72fa6bc337bb5cda754173b8a247151b73bb8c5caa8cd3ff5cc0fb5d639845220549051908152f35b5050346100e157602090816003193601126101245761025a6104ff565b906102636105a0565b928385526065815261027a600183872001546105d8565b838552606581528185206001600160a01b039093168086529281528185205460ff16156102a5578480f35b8385526065815281852083865290528320805460ff1916600117905533917f2f8788117e7eff1d82e926ec794901d17c78024a50270940304540a733656f0d8480a4388080808480f35b839150346100e157826003193601126100e15761030a61051a565b90336001600160a01b0383160361032657906101219135610924565b608490602085519162461bcd60e51b8352820152602f60248201527f416363657373436f6e74726f6c3a2063616e206f6e6c792072656e6f756e636560448201526e103937b632b9903337b91039b2b63360891b6064820152fd5b905034610124578160031936011261012457359061039d61051a565b9082845260656020526103b5600182862001546105d8565b828452606560209081528185206001600160a01b039093168086529290528084205460ff16156103e3578380f35b82845260656020528084208285526020528320600160ff1982541617905533917f2f8788117e7eff1d82e926ec794901d17c78024a50270940304540a733656f0d8480a43880808380f35b9050346101245760203660031901126101245781602093600192358152606585522001549051908152f35b5050346100e15760203660031901126100e157610121906104786104ff565b9061011c60016101556105a0565b5050346100e15760209081600319360112610124576104a36104ff565b90610263610562565b849134610124576020366003190112610124573563ffffffff60e01b81168091036101245760209250637965db0b60e01b81149081156104ee575b5015158152f35b6301ffc9a760e01b149050836104e7565b600435906001600160a01b038216820361051557565b600080fd5b602435906001600160a01b038216820361051557565b6040810190811067ffffffffffffffff82111761054c57604052565b634e487b7160e01b600052604160045260246000fd5b60405160208101907f504542424c453a504542424c455f44454c4547415445455f524f4c45000000008252601c815261059a81610530565b51902090565b60405160208101907f504542424c453a504542424c455f41444d494e5f524f4c45000000000000000082526018815261059a81610530565b600081815260209160658352604092838320338452815260ff8484205416156106015750505050565b835167ffffffffffffffff9390923360608501868111868210176108ed578752602a855283850191873684378551156108d957603083538551916001928310156108c5576078602188015360295b83811161085b5750610785578751906080820182811089821117610847578952604282528582019260603685378251156108335760308453825181101561083357607860218401536041905b8082116107c7575050610785579161071a949391889360679899519687936106f08886019a7f416363657373436f6e74726f6c3a206163636f756e74200000000000000000008c525180926037880190610901565b8401917001034b99036b4b9b9b4b733903937b6329607d1b60378401525180936048840190610901565b0103602881018552601f1996879101168401968488109088111761077157509261076860449593601f938880975262461bcd60e51b8752600487015251809281602488015287870190610901565b01168101030190fd5b634e487b7160e01b81526041600452602490fd5b60648589519062461bcd60e51b825280600483015260248201527f537472696e67733a20686578206c656e67746820696e73756666696369656e746044820152fd5b9091600f8116601081101561081f576f181899199a1a9b1b9c1cb0b131b232b360811b901a6107f6848661099a565b5360041c91801561080b57600019019061069b565b634e487b7160e01b87526011600452602487fd5b634e487b7160e01b88526032600452602488fd5b634e487b7160e01b86526032600452602486fd5b634e487b7160e01b86526041600452602486fd5b90600f811660108110156108b1576f181899199a1a9b1b9c1cb0b131b232b360811b901a610889838a61099a565b5360041c90801561089d576000190161064f565b634e487b7160e01b86526011600452602486fd5b634e487b7160e01b87526032600452602487fd5b634e487b7160e01b85526032600452602485fd5b634e487b7160e01b84526032600452602484fd5b634e487b7160e01b84526041600452602484fd5b60005b8381106109145750506000910152565b8181015183820152602001610904565b906000918083526065602052604083209160018060a01b03169182845260205260ff60408420541661095557505050565b8083526065602052604083208284526020526040832060ff1981541690557ff6391f5c32d9c69d2a47ea670b442974b53935d1edc7fd64eb21e047a839171b339380a4565b9081518110156109ab570160200190565b634e487b7160e01b600052603260045260246000fdfea26469706673582212201cdad20fc58a78a3cda5b9067c666ecf76d5858ab8899bc567bc94b989952c9d64736f6c63430008110033",
    "linkReferences": {}
  },
  "methodIdentifiers": {
    "DEFAULT_ADMIN_ROLE()": "a217fddf",
    "PEBBLE_ADMIN_ROLE()": "f45dd5b2",
    "PEBBLE_DELEGATEE_ROLE()": "ace4fba4",
    "getDelegatorNonce(address)": "6ab6cd6c",
    "getRoleAdmin(bytes32)": "248a9ca3",
    "grantPebbleAdminRole(address)": "3bb5d660",
    "grantPebbleDelegateeRole(address)": "17ad43b6",
    "grantRole(bytes32,address)": "2f2ff15d",
    "hasRole(bytes32,address)": "91d14854",
    "renounceRole(bytes32,address)": "36568abe",
    "revokePebbleAdminRole(address)": "1d63e3b8",
    "revokePebbleDelegateeRole(address)": "c9776e6b",
    "revokeRole(bytes32,address)": "d547741f",
    "supportsInterface(bytes4)": "01ffc9a7"
  },
  "id": 27
}