{
  "abi": [
    {
      "anonymous": false,
      "inputs": [
        {
          "indexed": false,
          "internalType": "uint8",
          "name": "version",
          "type": "uint8"
        }
      ],
      "name": "Initialized",
      "type": "event"
    },
    {
      "anonymous": false,
      "inputs": [
        {
          "indexed": true,
          "internalType": "bytes32",
          "name": "role",
          "type": "bytes32"
        },
        {
          "indexed": true,
          "internalType": "bytes32",
          "name": "previousAdminRole",
          "type": "bytes32"
        },
        {
          "indexed": true,
          "internalType": "bytes32",
          "name": "newAdminRole",
          "type": "bytes32"
        }
      ],
      "name": "RoleAdminChanged",
      "type": "event"
    },
    {
      "anonymous": false,
      "inputs": [
        {
          "indexed": true,
          "internalType": "bytes32",
          "name": "role",
          "type": "bytes32"
        },
        {
          "indexed": true,
          "internalType": "address",
          "name": "account",
          "type": "address"
        },
        {
          "indexed": true,
          "internalType": "address",
          "name": "sender",
          "type": "address"
        }
      ],
      "name": "RoleGranted",
      "type": "event"
    },
    {
      "anonymous": false,
      "inputs": [
        {
          "indexed": true,
          "internalType": "bytes32",
          "name": "role",
          "type": "bytes32"
        },
        {
          "indexed": true,
          "internalType": "address",
          "name": "account",
          "type": "address"
        },
        {
          "indexed": true,
          "internalType": "address",
          "name": "sender",
          "type": "address"
        }
      ],
      "name": "RoleRevoked",
      "type": "event"
    },
    {
      "inputs": [],
      "name": "DEFAULT_ADMIN_ROLE",
      "outputs": [
        {
          "internalType": "bytes32",
          "name": "",
          "type": "bytes32"
        }
      ],
      "stateMutability": "view",
      "type": "function"
    },
    {
      "inputs": [],
      "name": "PEBBLE_ADMIN_ROLE",
      "outputs": [
        {
          "internalType": "bytes32",
          "name": "",
          "type": "bytes32"
        }
      ],
      "stateMutability": "view",
      "type": "function"
    },
    {
      "inputs": [],
      "name": "PEBBLE_DELEGATEE_ROLE",
      "outputs": [
        {
          "internalType": "bytes32",
          "name": "",
          "type": "bytes32"
        }
      ],
      "stateMutability": "view",
      "type": "function"
    },
    {
      "inputs": [
        {
          "internalType": "bytes32",
          "name": "role",
          "type": "bytes32"
        }
      ],
      "name": "getRoleAdmin",
      "outputs": [
        {
          "internalType": "bytes32",
          "name": "",
          "type": "bytes32"
        }
      ],
      "stateMutability": "view",
      "type": "function"
    },
    {
      "inputs": [
        {
          "internalType": "address",
          "name": "_pebbleAdminNew",
          "type": "address"
        }
      ],
      "name": "grantPebbleAdminRole",
      "outputs": [],
      "stateMutability": "nonpayable",
      "type": "function"
    },
    {
      "inputs": [
        {
          "internalType": "address",
          "name": "_delegateeNew",
          "type": "address"
        }
      ],
      "name": "grantPebbleDelegateeRole",
      "outputs": [],
      "stateMutability": "nonpayable",
      "type": "function"
    },
    {
      "inputs": [
        {
          "internalType": "bytes32",
          "name": "role",
          "type": "bytes32"
        },
        {
          "internalType": "address",
          "name": "account",
          "type": "address"
        }
      ],
      "name": "grantRole",
      "outputs": [],
      "stateMutability": "nonpayable",
      "type": "function"
    },
    {
      "inputs": [
        {
          "internalType": "bytes32",
          "name": "role",
          "type": "bytes32"
        },
        {
          "internalType": "address",
          "name": "account",
          "type": "address"
        }
      ],
      "name": "hasRole",
      "outputs": [
        {
          "internalType": "bool",
          "name": "",
          "type": "bool"
        }
      ],
      "stateMutability": "view",
      "type": "function"
    },
    {
      "inputs": [
        {
          "internalType": "bytes32",
          "name": "role",
          "type": "bytes32"
        },
        {
          "internalType": "address",
          "name": "account",
          "type": "address"
        }
      ],
      "name": "renounceRole",
      "outputs": [],
      "stateMutability": "nonpayable",
      "type": "function"
    },
    {
      "inputs": [
        {
          "internalType": "address",
          "name": "_pebbleAdminToRevoke",
          "type": "address"
        }
      ],
      "name": "revokePebbleAdminRole",
      "outputs": [],
      "stateMutability": "nonpayable",
      "type": "function"
    },
    {
      "inputs": [
        {
          "internalType": "address",
          "name": "_delegateeToRevoke",
          "type": "address"
        }
      ],
      "name": "revokePebbleDelegateeRole",
      "outputs": [],
      "stateMutability": "nonpayable",
      "type": "function"
    },
    {
      "inputs": [
        {
          "internalType": "bytes32",
          "name": "role",
          "type": "bytes32"
        },
        {
          "internalType": "address",
          "name": "account",
          "type": "address"
        }
      ],
      "name": "revokeRole",
      "outputs": [],
      "stateMutability": "nonpayable",
      "type": "function"
    },
    {
      "inputs": [
        {
          "internalType": "bytes4",
          "name": "interfaceId",
          "type": "bytes4"
        }
      ],
      "name": "supportsInterface",
      "outputs": [
        {
          "internalType": "bool",
          "name": "",
          "type": "bool"
        }
      ],
      "stateMutability": "view",
      "type": "function"
    }
  ],
  "bytecode": {
    "object": "0x6080806040523461001657610995908161001c8239f35b600080fdfe608060408181526004918236101561001657600080fd5b600092833560e01c91826301ffc9a71461044a5750816317ad43b6146104245781631d63e3b8146103f7578163248a9ca3146103cc5781632f2ff15d1461031f57816336568abe1461028d5781633bb5d660146101db57816391d1485414610194578163a217fddf14610179578163ace4fba41461015c578163c9776e6b1461011d578163d547741f146100da575063f45dd5b2146100b457600080fd5b346100d657816003193601126100d6576020906100cf61053e565b9051908152f35b5080fd5b91905034610119578060031936011261011957610116913561011160016100ff6104b8565b93838752606560205286200154610576565b6108c2565b80f35b8280fd5b5050346100d65760203660031901126100d6576101169061013c61049d565b90610111600161014a610500565b92838752606560205286200154610576565b5050346100d657816003193601126100d6576020906100cf610500565b5050346100d657816003193601126100d65751908152602090f35b9050346101195781600319360112610119578160209360ff926101b56104b8565b90358252606586528282206001600160a01b039091168252855220549151911615158152f35b5050346100d65760209081600319360112610119576101f861049d565b9061020161053e565b928385526065815261021860018387200154610576565b838552606581528185206001600160a01b039093168086529281528185205460ff1615610243578480f35b8385526065815281852083865290528320805460ff1916600117905533917f2f8788117e7eff1d82e926ec794901d17c78024a50270940304540a733656f0d8480a4388080808480f35b839150346100d657826003193601126100d6576102a86104b8565b90336001600160a01b038316036102c4579061011691356108c2565b608490602085519162461bcd60e51b8352820152602f60248201527f416363657373436f6e74726f6c3a2063616e206f6e6c792072656e6f756e636560448201526e103937b632b9903337b91039b2b63360891b6064820152fd5b905034610119578160031936011261011957359061033b6104b8565b90828452606560205261035360018286200154610576565b828452606560209081528185206001600160a01b039093168086529290528084205460ff1615610381578380f35b82845260656020528084208285526020528320600160ff1982541617905533917f2f8788117e7eff1d82e926ec794901d17c78024a50270940304540a733656f0d8480a43880808380f35b9050346101195760203660031901126101195781602093600192358152606585522001549051908152f35b5050346100d65760203660031901126100d6576101169061041661049d565b90610111600161014a61053e565b5050346100d657602090816003193601126101195761044161049d565b90610201610500565b849134610119576020366003190112610119573563ffffffff60e01b81168091036101195760209250637965db0b60e01b811490811561048c575b5015158152f35b6301ffc9a760e01b14905083610485565b600435906001600160a01b03821682036104b357565b600080fd5b602435906001600160a01b03821682036104b357565b6040810190811067ffffffffffffffff8211176104ea57604052565b634e487b7160e01b600052604160045260246000fd5b60405160208101907f504542424c453a504542424c455f44454c4547415445455f524f4c45000000008252601c8152610538816104ce565b51902090565b60405160208101907f504542424c453a504542424c455f41444d494e5f524f4c450000000000000000825260188152610538816104ce565b600081815260209160658352604092838320338452815260ff84842054161561059f5750505050565b835167ffffffffffffffff93909233606085018681118682101761088b578752602a855283850191873684378551156108775760308353855191600192831015610863576078602188015360295b8381116107f957506107235787519060808201828110898211176107e5578952604282528582019260603685378251156107d1576030845382518110156107d157607860218401536041905b80821161076557505061072357916106b89493918893606798995196879361068e8886019a7f416363657373436f6e74726f6c3a206163636f756e74200000000000000000008c52518092603788019061089f565b8401917001034b99036b4b9b9b4b733903937b6329607d1b6037840152518093604884019061089f565b0103602881018552601f1996879101168401968488109088111761070f57509261070660449593601f938880975262461bcd60e51b875260048701525180928160248801528787019061089f565b01168101030190fd5b634e487b7160e01b81526041600452602490fd5b60648589519062461bcd60e51b825280600483015260248201527f537472696e67733a20686578206c656e67746820696e73756666696369656e746044820152fd5b9091600f811660108110156107bd576f181899199a1a9b1b9c1cb0b131b232b360811b901a6107948486610938565b5360041c9180156107a9576000190190610639565b634e487b7160e01b87526011600452602487fd5b634e487b7160e01b88526032600452602488fd5b634e487b7160e01b86526032600452602486fd5b634e487b7160e01b86526041600452602486fd5b90600f8116601081101561084f576f181899199a1a9b1b9c1cb0b131b232b360811b901a610827838a610938565b5360041c90801561083b57600019016105ed565b634e487b7160e01b86526011600452602486fd5b634e487b7160e01b87526032600452602487fd5b634e487b7160e01b85526032600452602485fd5b634e487b7160e01b84526032600452602484fd5b634e487b7160e01b84526041600452602484fd5b60005b8381106108b25750506000910152565b81810151838201526020016108a2565b906000918083526065602052604083209160018060a01b03169182845260205260ff6040842054166108f357505050565b8083526065602052604083208284526020526040832060ff1981541690557ff6391f5c32d9c69d2a47ea670b442974b53935d1edc7fd64eb21e047a839171b339380a4565b908151811015610949570160200190565b634e487b7160e01b600052603260045260246000fdfea2646970667358221220775ac3417a3882cf1ffb1476e849f8e7f4b8acdaac1ef91b15d2b5d5dbee45c564736f6c63430008110033",
    "linkReferences": {}
  },
  "methodIdentifiers": {
    "DEFAULT_ADMIN_ROLE()": "a217fddf",
    "PEBBLE_ADMIN_ROLE()": "f45dd5b2",
    "PEBBLE_DELEGATEE_ROLE()": "ace4fba4",
    "getRoleAdmin(bytes32)": "248a9ca3",
    "grantPebbleAdminRole(address)": "3bb5d660",
    "grantPebbleDelegateeRole(address)": "17ad43b6",
    "grantRole(bytes32,address)": "2f2ff15d",
    "hasRole(bytes32,address)": "91d14854",
    "renounceRole(bytes32,address)": "36568abe",
    "revokePebbleAdminRole(address)": "1d63e3b8",
    "revokePebbleDelegateeRole(address)": "c9776e6b",
    "revokeRole(bytes32,address)": "d547741f",
    "supportsInterface(bytes4)": "01ffc9a7"
  },
  "id": 33
}