{
  "abi": [
    {
      "inputs": [],
      "stateMutability": "nonpayable",
      "type": "constructor"
    },
    {
      "anonymous": false,
      "inputs": [
        {
          "indexed": false,
          "internalType": "address",
          "name": "previousAdmin",
          "type": "address"
        },
        {
          "indexed": false,
          "internalType": "address",
          "name": "newAdmin",
          "type": "address"
        }
      ],
      "name": "AdminChanged",
      "type": "event"
    },
    {
      "anonymous": false,
      "inputs": [
        {
          "indexed": true,
          "internalType": "uint256",
          "name": "groupId",
          "type": "uint256"
        }
      ],
      "name": "AllInvitesAccepted",
      "type": "event"
    },
    {
      "anonymous": false,
      "inputs": [
        {
          "indexed": true,
          "internalType": "address",
          "name": "beacon",
          "type": "address"
        }
      ],
      "name": "BeaconUpgraded",
      "type": "event"
    },
    {
      "anonymous": false,
      "inputs": [
        {
          "indexed": false,
          "internalType": "uint8",
          "name": "version",
          "type": "uint8"
        }
      ],
      "name": "Initialized",
      "type": "event"
    },
    {
      "anonymous": false,
      "inputs": [
        {
          "indexed": true,
          "internalType": "uint256",
          "name": "groupId",
          "type": "uint256"
        },
        {
          "indexed": true,
          "internalType": "address",
          "name": "creator",
          "type": "address"
        },
        {
          "indexed": true,
          "internalType": "address",
          "name": "participant",
          "type": "address"
        }
      ],
      "name": "Invite",
      "type": "event"
    },
    {
      "anonymous": false,
      "inputs": [
        {
          "indexed": true,
          "internalType": "bytes32",
          "name": "role",
          "type": "bytes32"
        },
        {
          "indexed": true,
          "internalType": "bytes32",
          "name": "previousAdminRole",
          "type": "bytes32"
        },
        {
          "indexed": true,
          "internalType": "bytes32",
          "name": "newAdminRole",
          "type": "bytes32"
        }
      ],
      "name": "RoleAdminChanged",
      "type": "event"
    },
    {
      "anonymous": false,
      "inputs": [
        {
          "indexed": true,
          "internalType": "bytes32",
          "name": "role",
          "type": "bytes32"
        },
        {
          "indexed": true,
          "internalType": "address",
          "name": "account",
          "type": "address"
        },
        {
          "indexed": true,
          "internalType": "address",
          "name": "sender",
          "type": "address"
        }
      ],
      "name": "RoleGranted",
      "type": "event"
    },
    {
      "anonymous": false,
      "inputs": [
        {
          "indexed": true,
          "internalType": "bytes32",
          "name": "role",
          "type": "bytes32"
        },
        {
          "indexed": true,
          "internalType": "address",
          "name": "account",
          "type": "address"
        },
        {
          "indexed": true,
          "internalType": "address",
          "name": "sender",
          "type": "address"
        }
      ],
      "name": "RoleRevoked",
      "type": "event"
    },
    {
      "anonymous": false,
      "inputs": [
        {
          "indexed": true,
          "internalType": "uint256",
          "name": "groupId",
          "type": "uint256"
        },
        {
          "indexed": true,
          "internalType": "address",
          "name": "sender",
          "type": "address"
        },
        {
          "indexed": false,
          "internalType": "bytes",
          "name": "encryptedMessage",
          "type": "bytes"
        }
      ],
      "name": "SendMessage",
      "type": "event"
    },
    {
      "anonymous": false,
      "inputs": [
        {
          "indexed": true,
          "internalType": "address",
          "name": "implementation",
          "type": "address"
        }
      ],
      "name": "Upgraded",
      "type": "event"
    },
    {
      "inputs": [],
      "name": "DEFAULT_ADMIN_ROLE",
      "outputs": [
        {
          "internalType": "bytes32",
          "name": "",
          "type": "bytes32"
        }
      ],
      "stateMutability": "view",
      "type": "function"
    },
    {
      "inputs": [],
      "name": "PEBBLE_ADMIN_ROLE",
      "outputs": [
        {
          "internalType": "bytes32",
          "name": "",
          "type": "bytes32"
        }
      ],
      "stateMutability": "view",
      "type": "function"
    },
    {
      "inputs": [],
      "name": "PEBBLE_DELEGATEE_ROLE",
      "outputs": [
        {
          "internalType": "bytes32",
          "name": "",
          "type": "bytes32"
        }
      ],
      "stateMutability": "view",
      "type": "function"
    },
    {
      "inputs": [
        {
          "internalType": "uint256",
          "name": "_groupId",
          "type": "uint256"
        },
        {
          "internalType": "address[]",
          "name": "_penultimateKeysFor",
          "type": "address[]"
        },
        {
          "internalType": "uint256[]",
          "name": "_penultimateKeysXUpdated",
          "type": "uint256[]"
        },
        {
          "internalType": "uint256[]",
          "name": "_penultimateKeysYUpdated",
          "type": "uint256[]"
        },
        {
          "internalType": "uint256",
          "name": "_timestampForWhichUpdatedKeysAreMeant",
          "type": "uint256"
        }
      ],
      "name": "acceptGroupInvite",
      "outputs": [],
      "stateMutability": "nonpayable",
      "type": "function"
    },
    {
      "inputs": [
        {
          "internalType": "uint256",
          "name": "_groupId",
          "type": "uint256"
        },
        {
          "internalType": "address",
          "name": "_groupParticipant",
          "type": "address"
        },
        {
          "internalType": "address[]",
          "name": "_penultimateKeysFor",
          "type": "address[]"
        },
        {
          "internalType": "uint256[]",
          "name": "_penultimateKeysXUpdated",
          "type": "uint256[]"
        },
        {
          "internalType": "uint256[]",
          "name": "_penultimateKeysYUpdated",
          "type": "uint256[]"
        },
        {
          "internalType": "uint256",
          "name": "_timestampForWhichUpdatedKeysAreMeant",
          "type": "uint256"
        },
        {
          "internalType": "uint256",
          "name": "_groupParticipantDelegatorNonce",
          "type": "uint256"
        },
        {
          "internalType": "bytes",
          "name": "_signatureFromGroupParticipant",
          "type": "bytes"
        }
      ],
      "name": "acceptGroupInviteForDelegator",
      "outputs": [],
      "stateMutability": "nonpayable",
      "type": "function"
    },
    {
      "inputs": [
        {
          "internalType": "uint256",
          "name": "_groupId",
          "type": "uint256"
        },
        {
          "internalType": "address",
          "name": "_groupParticipant",
          "type": "address"
        },
        {
          "internalType": "address[]",
          "name": "_penultimateKeysFor",
          "type": "address[]"
        },
        {
          "internalType": "uint256[]",
          "name": "_penultimateKeysXUpdated",
          "type": "uint256[]"
        },
        {
          "internalType": "uint256[]",
          "name": "_penultimateKeysYUpdated",
          "type": "uint256[]"
        },
        {
          "internalType": "uint256",
          "name": "_timestampForWhichUpdatedKeysAreMeant",
          "type": "uint256"
        },
        {
          "internalType": "uint256",
          "name": "_groupParticipantDelegatorNonce",
          "type": "uint256"
        },
        {
          "internalType": "uint8",
          "name": "_signatureFromGroupParticipant_v",
          "type": "uint8"
        },
        {
          "internalType": "bytes32",
          "name": "_signatureFromGroupParticipant_r",
          "type": "bytes32"
        },
        {
          "internalType": "bytes32",
          "name": "_signatureFromGroupParticipant_s",
          "type": "bytes32"
        }
      ],
      "name": "acceptGroupInviteForDelegator",
      "outputs": [],
      "stateMutability": "nonpayable",
      "type": "function"
    },
    {
      "inputs": [
        {
          "internalType": "address[]",
          "name": "_groupParticipantsOtherThanCreator",
          "type": "address[]"
        },
        {
          "internalType": "uint256",
          "name": "_initialPenultimateSharedKeyForCreatorX",
          "type": "uint256"
        },
        {
          "internalType": "uint256",
          "name": "_initialPenultimateSharedKeyForCreatorY",
          "type": "uint256"
        },
        {
          "internalType": "uint256",
          "name": "_initialPenultimateSharedKeyFromCreatorX",
          "type": "uint256"
        },
        {
          "internalType": "uint256",
          "name": "_initialPenultimateSharedKeyFromCreatorY",
          "type": "uint256"
        }
      ],
      "name": "createGroup",
      "outputs": [
        {
          "internalType": "uint256",
          "name": "groupId",
          "type": "uint256"
        }
      ],
      "stateMutability": "nonpayable",
      "type": "function"
    },
    {
      "inputs": [
        {
          "internalType": "address",
          "name": "_groupCreator",
          "type": "address"
        },
        {
          "internalType": "address[]",
          "name": "_groupParticipantsOtherThanCreator",
          "type": "address[]"
        },
        {
          "internalType": "uint256",
          "name": "_initialPenultimateSharedKeyForCreatorX",
          "type": "uint256"
        },
        {
          "internalType": "uint256",
          "name": "_initialPenultimateSharedKeyForCreatorY",
          "type": "uint256"
        },
        {
          "internalType": "uint256",
          "name": "_initialPenultimateSharedKeyFromCreatorX",
          "type": "uint256"
        },
        {
          "internalType": "uint256",
          "name": "_initialPenultimateSharedKeyFromCreatorY",
          "type": "uint256"
        },
        {
          "internalType": "uint256",
          "name": "_groupCreatorDelegatorNonce",
          "type": "uint256"
        },
        {
          "internalType": "bytes",
          "name": "_signatureFromDelegator",
          "type": "bytes"
        }
      ],
      "name": "createGroupForDelegator",
      "outputs": [
        {
          "internalType": "uint256",
          "name": "groupId",
          "type": "uint256"
        }
      ],
      "stateMutability": "nonpayable",
      "type": "function"
    },
    {
      "inputs": [
        {
          "internalType": "address",
          "name": "_groupCreator",
          "type": "address"
        },
        {
          "internalType": "address[]",
          "name": "_groupParticipantsOtherThanCreator",
          "type": "address[]"
        },
        {
          "internalType": "uint256",
          "name": "_initialPenultimateSharedKeyForCreatorX",
          "type": "uint256"
        },
        {
          "internalType": "uint256",
          "name": "_initialPenultimateSharedKeyForCreatorY",
          "type": "uint256"
        },
        {
          "internalType": "uint256",
          "name": "_initialPenultimateSharedKeyFromCreatorX",
          "type": "uint256"
        },
        {
          "internalType": "uint256",
          "name": "_initialPenultimateSharedKeyFromCreatorY",
          "type": "uint256"
        },
        {
          "internalType": "uint256",
          "name": "_groupCreatorDelegatorNonce",
          "type": "uint256"
        },
        {
          "internalType": "uint8",
          "name": "_signatureFromDelegator_v",
          "type": "uint8"
        },
        {
          "internalType": "bytes32",
          "name": "_signatureFromDelegator_r",
          "type": "bytes32"
        },
        {
          "internalType": "bytes32",
          "name": "_signatureFromDelegator_s",
          "type": "bytes32"
        }
      ],
      "name": "createGroupForDelegator",
      "outputs": [
        {
          "internalType": "uint256",
          "name": "groupId",
          "type": "uint256"
        }
      ],
      "stateMutability": "nonpayable",
      "type": "function"
    },
    {
      "inputs": [
        {
          "internalType": "uint256",
          "name": "_delegateFeesBasis",
          "type": "uint256"
        }
      ],
      "name": "deployAndAssignDelegateeContract",
      "outputs": [
        {
          "internalType": "contract PebbleDelegatee",
          "name": "pebbleDelegatee",
          "type": "address"
        }
      ],
      "stateMutability": "nonpayable",
      "type": "function"
    },
    {
      "inputs": [
        {
          "internalType": "uint256",
          "name": "_groupId",
          "type": "uint256"
        },
        {
          "internalType": "address",
          "name": "_participant",
          "type": "address"
        }
      ],
      "name": "didParticipantAcceptGroupInvite",
      "outputs": [
        {
          "internalType": "bool",
          "name": "",
          "type": "bool"
        }
      ],
      "stateMutability": "view",
      "type": "function"
    },
    {
      "inputs": [
        {
          "internalType": "address",
          "name": "_delegator",
          "type": "address"
        }
      ],
      "name": "getDelegatorNonce",
      "outputs": [
        {
          "internalType": "uint256",
          "name": "nonce",
          "type": "uint256"
        }
      ],
      "stateMutability": "view",
      "type": "function"
    },
    {
      "inputs": [
        {
          "internalType": "uint256",
          "name": "_groupId",
          "type": "uint256"
        }
      ],
      "name": "getGroupPenultimateSharedKeyLastUpdateTimestamp",
      "outputs": [
        {
          "internalType": "uint256",
          "name": "timestamp",
          "type": "uint256"
        }
      ],
      "stateMutability": "view",
      "type": "function"
    },
    {
      "inputs": [
        {
          "internalType": "uint256",
          "name": "_groupId",
          "type": "uint256"
        }
      ],
      "name": "getOtherGroupParticipants",
      "outputs": [
        {
          "internalType": "address[]",
          "name": "otherParticipants",
          "type": "address[]"
        }
      ],
      "stateMutability": "view",
      "type": "function"
    },
    {
      "inputs": [
        {
          "internalType": "uint256",
          "name": "_groupId",
          "type": "uint256"
        },
        {
          "internalType": "address",
          "name": "_groupParticipant",
          "type": "address"
        }
      ],
      "name": "getParticipantGroupPenultimateSharedKey",
      "outputs": [
        {
          "internalType": "uint256",
          "name": "penultimateSharedKeyX",
          "type": "uint256"
        },
        {
          "internalType": "uint256",
          "name": "penultimateSharedKeyY",
          "type": "uint256"
        }
      ],
      "stateMutability": "view",
      "type": "function"
    },
    {
      "inputs": [
        {
          "internalType": "uint256",
          "name": "_groupId",
          "type": "uint256"
        },
        {
          "internalType": "address[]",
          "name": "_groupParticipants",
          "type": "address[]"
        }
      ],
      "name": "getParticipantsGroupPenultimateSharedKey",
      "outputs": [
        {
          "internalType": "uint256[]",
          "name": "penultimateSharedKeysX",
          "type": "uint256[]"
        },
        {
          "internalType": "uint256[]",
          "name": "penultimateSharedKeysY",
          "type": "uint256[]"
        }
      ],
      "stateMutability": "view",
      "type": "function"
    },
    {
      "inputs": [
        {
          "internalType": "bytes32",
          "name": "role",
          "type": "bytes32"
        }
      ],
      "name": "getRoleAdmin",
      "outputs": [
        {
          "internalType": "bytes32",
          "name": "",
          "type": "bytes32"
        }
      ],
      "stateMutability": "view",
      "type": "function"
    },
    {
      "inputs": [],
      "name": "getVersion",
      "outputs": [
        {
          "internalType": "string",
          "name": "",
          "type": "string"
        }
      ],
      "stateMutability": "pure",
      "type": "function"
    },
    {
      "inputs": [
        {
          "internalType": "address",
          "name": "_pebbleAdminNew",
          "type": "address"
        }
      ],
      "name": "grantPebbleAdminRole",
      "outputs": [],
      "stateMutability": "nonpayable",
      "type": "function"
    },
    {
      "inputs": [
        {
          "internalType": "address",
          "name": "_delegateeNew",
          "type": "address"
        }
      ],
      "name": "grantPebbleDelegateeRole",
      "outputs": [],
      "stateMutability": "nonpayable",
      "type": "function"
    },
    {
      "inputs": [
        {
          "internalType": "bytes32",
          "name": "role",
          "type": "bytes32"
        },
        {
          "internalType": "address",
          "name": "account",
          "type": "address"
        }
      ],
      "name": "grantRole",
      "outputs": [],
      "stateMutability": "nonpayable",
      "type": "function"
    },
    {
      "inputs": [
        {
          "internalType": "bytes32",
          "name": "role",
          "type": "bytes32"
        },
        {
          "internalType": "address",
          "name": "account",
          "type": "address"
        }
      ],
      "name": "hasRole",
      "outputs": [
        {
          "internalType": "bool",
          "name": "",
          "type": "bool"
        }
      ],
      "stateMutability": "view",
      "type": "function"
    },
    {
      "inputs": [
        {
          "internalType": "string",
          "name": "_pebbleVersion",
          "type": "string"
        },
        {
          "internalType": "address[]",
          "name": "_pebbleAdmins",
          "type": "address[]"
        },
        {
          "internalType": "address[]",
          "name": "_delegatees",
          "type": "address[]"
        }
      ],
      "name": "initialize",
      "outputs": [],
      "stateMutability": "nonpayable",
      "type": "function"
    },
    {
      "inputs": [],
      "name": "proxiableUUID",
      "outputs": [
        {
          "internalType": "bytes32",
          "name": "",
          "type": "bytes32"
        }
      ],
      "stateMutability": "view",
      "type": "function"
    },
    {
      "inputs": [
        {
          "internalType": "string",
          "name": "_pebbleVersion",
          "type": "string"
        },
        {
          "internalType": "address[]",
          "name": "_pebbleAdmins",
          "type": "address[]"
        },
        {
          "internalType": "address[]",
          "name": "_delegatees",
          "type": "address[]"
        }
      ],
      "name": "reinitialize",
      "outputs": [],
      "stateMutability": "nonpayable",
      "type": "function"
    },
    {
      "inputs": [
        {
          "internalType": "bytes32",
          "name": "role",
          "type": "bytes32"
        },
        {
          "internalType": "address",
          "name": "account",
          "type": "address"
        }
      ],
      "name": "renounceRole",
      "outputs": [],
      "stateMutability": "nonpayable",
      "type": "function"
    },
    {
      "inputs": [
        {
          "internalType": "address",
          "name": "_pebbleAdminToRevoke",
          "type": "address"
        }
      ],
      "name": "revokePebbleAdminRole",
      "outputs": [],
      "stateMutability": "nonpayable",
      "type": "function"
    },
    {
      "inputs": [
        {
          "internalType": "address",
          "name": "_delegateeToRevoke",
          "type": "address"
        }
      ],
      "name": "revokePebbleDelegateeRole",
      "outputs": [],
      "stateMutability": "nonpayable",
      "type": "function"
    },
    {
      "inputs": [
        {
          "internalType": "bytes32",
          "name": "role",
          "type": "bytes32"
        },
        {
          "internalType": "address",
          "name": "account",
          "type": "address"
        }
      ],
      "name": "revokeRole",
      "outputs": [],
      "stateMutability": "nonpayable",
      "type": "function"
    },
    {
      "inputs": [
        {
          "internalType": "uint256",
          "name": "_groupId",
          "type": "uint256"
        },
        {
          "internalType": "bytes",
          "name": "_encryptedMessage",
          "type": "bytes"
        }
      ],
      "name": "sendMessageInGroup",
      "outputs": [],
      "stateMutability": "nonpayable",
      "type": "function"
    },
    {
      "inputs": [
        {
          "internalType": "uint256",
          "name": "_groupId",
          "type": "uint256"
        },
        {
          "internalType": "address",
          "name": "_sender",
          "type": "address"
        },
        {
          "internalType": "bytes",
          "name": "_encryptedMessage",
          "type": "bytes"
        },
        {
          "internalType": "uint256",
          "name": "_senderDelegatorNonce",
          "type": "uint256"
        },
        {
          "internalType": "uint8",
          "name": "_signatureFromSender_v",
          "type": "uint8"
        },
        {
          "internalType": "bytes32",
          "name": "_signatureFromSender_r",
          "type": "bytes32"
        },
        {
          "internalType": "bytes32",
          "name": "_signatureFromSender_s",
          "type": "bytes32"
        }
      ],
      "name": "sendMessageInGroupForDelegator",
      "outputs": [],
      "stateMutability": "nonpayable",
      "type": "function"
    },
    {
      "inputs": [
        {
          "internalType": "uint256",
          "name": "_groupId",
          "type": "uint256"
        },
        {
          "internalType": "address",
          "name": "_sender",
          "type": "address"
        },
        {
          "internalType": "bytes",
          "name": "_encryptedMessage",
          "type": "bytes"
        },
        {
          "internalType": "uint256",
          "name": "_senderDelegatorNonce",
          "type": "uint256"
        },
        {
          "internalType": "bytes",
          "name": "_signatureFromSender",
          "type": "bytes"
        }
      ],
      "name": "sendMessageInGroupForDelegator",
      "outputs": [],
      "stateMutability": "nonpayable",
      "type": "function"
    },
    {
      "inputs": [
        {
          "internalType": "bytes4",
          "name": "interfaceId",
          "type": "bytes4"
        }
      ],
      "name": "supportsInterface",
      "outputs": [
        {
          "internalType": "bool",
          "name": "",
          "type": "bool"
        }
      ],
      "stateMutability": "view",
      "type": "function"
    },
    {
      "inputs": [
        {
          "internalType": "address",
          "name": "newImplementation",
          "type": "address"
        }
      ],
      "name": "upgradeTo",
      "outputs": [],
      "stateMutability": "nonpayable",
      "type": "function"
    },
    {
      "inputs": [
        {
          "internalType": "address",
          "name": "newImplementation",
          "type": "address"
        },
        {
          "internalType": "bytes",
          "name": "data",
          "type": "bytes"
        }
      ],
      "name": "upgradeToAndCall",
      "outputs": [],
      "stateMutability": "payable",
      "type": "function"
    }
  ],
  "bytecode": {
    "object": "0x60a08060405234620000e157306080526000549060ff8260081c166200008f575060ff8082161062000053575b6040516149a39081620000e78239608051818181610b220152818161104301526111760152f35b60ff90811916176000557f7f26b83ff96e1f2b6a682f133852f6798a09c465da95921460cefb3847402498602060405160ff8152a1386200002c565b62461bcd60e51b815260206004820152602760248201527f496e697469616c697a61626c653a20636f6e747261637420697320696e697469604482015266616c697a696e6760c81b6064820152608490fd5b600080fdfe6080604052600436101562000014575b600080fd5b60003560e01c806211e03714620003355780624fd168146200032a57806301ffc9a7146200031f5780630d5399d514620003145780630d8e6e2c1462000309578063102b54ca14620002fe57806317ad43b614620002f35780631d63e3b814620002e8578063248a9ca314620002dd57806325ccdaf714620002d25780632958cdf614620002c75780632f2ff15d14620002bc57806336568abe14620002b15780633659cfe614620002a65780633bb5d660146200029b57806342456dea14620002905780634f11b8a714620002855780634f1ef286146200027a57806352d1902d146200026f5780636ab6cd6c146200026457806378f3689b14620002595780638bd03cdb146200024e57806391d148541462000243578063a217fddf1462000238578063a558a16f146200022d578063ace4fba41462000222578063b50888ae1462000217578063bae50435146200020c578063c9776e6b1462000201578063d547741f14620001f6578063dec6472314620001eb578063ec18284d14620001e0578063f0f2708614620001d5578063f45dd5b214620001ca5763fa855a0214620001c057600080fd5b6200000f62001a54565b506200000f620019ee565b506200000f62001974565b506200000f620018cc565b506200000f62001849565b506200000f62001807565b506200000f620017db565b506200000f62001717565b506200000f620016cf565b506200000f620016a7565b506200000f620015dd565b506200000f620015be565b506200000f62001566565b506200000f62001486565b506200000f62001288565b506200000f6200122a565b506200000f62001160565b506200000f62000fed565b506200000f62000e14565b506200000f62000d3e565b506200000f62000c87565b506200000f62000afa565b506200000f62000a60565b506200000f62000a18565b506200000f62000982565b506200000f620008d1565b506200000f6200089f565b506200000f62000851565b506200000f62000829565b506200000f6200077d565b506200000f620005ec565b506200000f620004a1565b506200000f620003f3565b506200000f620003a5565b506200000f6200036e565b602435906001600160a01b03821682036200000f57565b600435906001600160a01b03821682036200000f57565b50346200000f5760403660031901126200000f5760206200039b6200039262000340565b6004356200348a565b6040519015158152f35b50346200000f5760203660031901126200000f576004356000527f8471e74ec79a6a627ffb068d56c3a7a2ba329d4f8f6ad48361f5ab97a723e9766020526020604060002054604051908152f35b50346200000f5760203660031901126200000f5760043563ffffffff60e01b81168091036200000f57602090637965db0b60e01b81149081156200043d575b506040519015158152f35b6301ffc9a760e01b1490503862000432565b9181601f840112156200000f578235916001600160401b0383116200000f57602083818601950101116200000f57565b6084359060ff821682036200000f57565b60e4359060ff821682036200000f57565b50346200000f5760e03660031901126200000f57600435620004c262000340565b90604435916001600160401b0383116200000f5762000581620004ee620005889436906004016200044f565b62000579620005656200055c606435620005076200047f565b906200051c6200051662001667565b62001ba0565b62000533816200052c8b62002d0c565b1462002a4e565b60c435916200055660a435928c8c6200054f8c8c369162000fb1565b9162003938565b62002c76565b91909162002b13565b6001600160a01b0386811691161462002aa5565b369162000fb1565b916200382e565b005b60005b8381106200059e5750506000910152565b81810151838201526020016200058d565b90602091620005ca815180928185528580860191016200058a565b601f01601f1916010190565b906020620005e9928181520190620005af565b90565b50346200000f57600080600319360112620007475760405190807f521e4caddd81fbdd5f556a9ab5c2a4923bf4e6832e3978f3ad043ffaf5444a68549060019180831c928082169283156200073c575b60209283861085146200072857858852602088019490811562000704575060011462000687575b6200068387620006768189038262000f50565b60405191829182620005d6565b0390f35b7f521e4caddd81fbdd5f556a9ab5c2a4923bf4e6832e3978f3ad043ffaf5444a6860005294509192917f20f063e71c073277a37d060f904028265ae654567b12df4d619f78a29be0123f5b838610620006f25750505091019050620006768262000683388062000663565b805485870152948201948101620006d2565b60ff191685525050505090151560051b019050620006768262000683388062000663565b634e487b7160e01b82526022600452602482fd5b93607f16936200063c565b80fd5b9181601f840112156200000f578235916001600160401b0383116200000f576020808501948460051b0101116200000f57565b50346200000f5760a03660031901126200000f576001600160401b036024358181116200000f57620007b49036906004016200074a565b6044358381116200000f57620007cf9036906004016200074a565b91906064359485116200000f57620008116200081e9162000808620007fd620005889836906004016200074a565b9790953691620013c1565b94369162002f36565b9160843594369162002f36565b913360043562003130565b50346200000f5760203660031901126200000f57620005886200084b62000357565b620039f4565b50346200000f5760203660031901126200000f57620005886200087362000357565b6200087d620019b4565b8060005260656020526200089960016040600020015462001ba0565b62001db5565b50346200000f5760203660031901126200000f5760043560005260656020526020600160406000200154604051908152f35b50346200000f576101003660031901126200000f57620008f062000340565b6001600160401b03906044358281116200000f57620009149036906004016200074a565b906064358481116200000f57620009309036906004016200074a565b6084949194358681116200000f576200094e9036906004016200074a565b9160e4359788116200000f576200096e620005889836906004016200044f565b97909660c4359660a4359660043562003535565b50346200000f576101003660031901126200000f57620009a162000357565b6001600160401b036024358181116200000f57620009c49036906004016200074a565b60e4939193359283116200000f576200068393620009eb62000a089436906004016200044f565b93909260c4359260a43592608435926064359260443592620029f4565b6040519081529081906020820190565b50346200000f5760403660031901126200000f576200058860043562000a3d62000340565b9080600052606560205262000a5a60016040600020015462001ba0565b62001d1c565b50346200000f5760403660031901126200000f5762000a7e62000340565b336001600160a01b0382160362000a9d57620005889060043562001db5565b60405162461bcd60e51b815260206004820152602f60248201527f416363657373436f6e74726f6c3a2063616e206f6e6c792072656e6f756e636560448201526e103937b632b9903337b91039b2b63360891b6064820152608490fd5b50346200000f5760203660031901126200000f5762000b1862000357565b6001600160a01b037f00000000000000000000000000000000000000000000000000000000000000008116919062000b533084141562001e4a565b62000b736000805160206200494e83398151915293828554161462001eac565b62000b8162000516620019b4565b60405190602082018281106001600160401b0382111762000c77575b604052600082527f4910fdfa16fed3260ed0e7147f7cc6da11a60208b5b9406d12a635614ffd91435460ff161562000bdd57505062000588915062002017565b6020600491604094939451928380926352d1902d60e01b825286165afa6000918162000c40575b5062000c295760405162461bcd60e51b81528062000c256004820162001fc8565b0390fd5b620005889362000c3a911462001f69565b620021cb565b62000c6791925060203d811162000c6f575b62000c5e818362000f50565b81019062001f4c565b903862000c04565b503d62000c52565b62000c8162000ef2565b62000b9d565b50346200000f5760203660031901126200000f576200058862000ca962000357565b62000cb3620019b4565b80600052606560205262000a5a60016040600020015462001ba0565b9060606003198301126200000f576001600160401b036004358181116200000f578362000cff916004016200044f565b939093926024358381116200000f578262000d1d916004016200074a565b939093926044359182116200000f5762000d3a916004016200074a565b9091565b50346200000f5762000de47f7f26b83ff96e1f2b6a682f133852f6798a09c465da95921460cefb3847402498602062000d773662000ccf565b9262000d8c62000516999599939293620019b4565b60009889549660ff80891662000dbf600182019183831162000e04575b838c60081c1615908162000df7575b506200247d565b16809860ff1916178b5562000dde61010061ff00196000541617600055565b620024e1565b835461ff0019168455604051908152a180f35b9050838316113862000db8565b62000e0e620022d9565b62000da9565b50346200000f57600162000e7162000e2c3662000ccf565b9460009491949392935460ff8160081c1615988991829a8b9362000ee5575b801562000ecd575b62000e5e906200247d565b60ff19161760005562000eb857620024e1565b62000e7857005b62000e8961ff001960005416600055565b604051600181527f7f26b83ff96e1f2b6a682f133852f6798a09c465da95921460cefb384740249890602090a1005b62000dde61010061ff00196000541617600055565b50303b15801562000e53575060ff8116821462000e53565b508160ff82161062000e4b565b50634e487b7160e01b600052604160045260246000fd5b604081019081106001600160401b0382111762000f2557604052565b62000f2f62000ef2565b604052565b60c081019081106001600160401b0382111762000f2557604052565b90601f801991011681019081106001600160401b0382111762000f2557604052565b6040519062000f818262000f09565b565b6020906001600160401b03811162000fa1575b601f01601f19160190565b62000fab62000ef2565b62000f96565b92919262000fbf8262000f83565b9162000fcf604051938462000f50565b8294818452818301116200000f578281602093846000960137010152565b5060403660031901126200000f576200100562000357565b6024356001600160401b0381116200000f57366023820112156200000f576200103990369060248160040135910162000fb1565b6001600160a01b037f00000000000000000000000000000000000000000000000000000000000000008116929190620010753085141562001e4a565b620010956000805160206200494e83398151915294828654161462001eac565b620010a362000516620019b4565b7f4910fdfa16fed3260ed0e7147f7cc6da11a60208b5b9406d12a635614ffd91435460ff1615620010dc57505062000588915062002017565b6020600491604094939451928380926352d1902d60e01b825286165afa600091816200113b575b50620011245760405162461bcd60e51b81528062000c256004820162001fc8565b620005889362001135911462001f69565b620020a9565b6200115891925060203d811162000c6f5762000c5e818362000f50565b903862001103565b50346200000f5760003660031901126200000f577f00000000000000000000000000000000000000000000000000000000000000006001600160a01b03163003620011bf576040516000805160206200494e8339815191528152602090f35b60405162461bcd60e51b815260206004820152603860248201527f555550535570677261646561626c653a206d757374206e6f742062652063616c60448201527f6c6564207468726f7567682064656c656761746563616c6c00000000000000006064820152608490fd5b50346200000f5760203660031901126200000f576001600160a01b036200125062000357565b166000527f6e6fd72fa6bc337bb5cda754173b8a247151b73bb8c5caa8cd3ff5cc0fb5d6396020526020604060002054604051908152f35b50346200000f576101403660031901126200000f57620012a762000357565b6024356001600160401b0381116200000f576200068391620012d262000a089236906004016200074a565b9162001390604435926064359460843580966200135c620013486200055c86868a620005568d60a435809a8a60c435936200130c62000490565b966200131b6200051662001667565b6200132b866200052c8362002d0c565b62001341610124359a610104359a3691620013c1565b9062002d55565b6001600160a01b0388811691161462002aa5565b604051966200136b8862000f09565b8752602087015260405196620013818862000f09565b875260208701523691620013c1565b9062002779565b6020906001600160401b038111620013b1575b60051b0190565b620013bb62000ef2565b620013aa565b9291620013ce8262001397565b91620013de604051938462000f50565b829481845260208094019160051b81019283116200000f57905b828210620014065750505050565b81356001600160a01b03811681036200000f578152908301908301620013f8565b90815180825260208080930193019160005b82811062001448575050505090565b83518552938101939281019260010162001439565b909162001477620005e99360408452604084019062001427565b91602081840391015262001427565b50346200000f5760403660031901126200000f576004356024356001600160401b0381116200000f57366023820112156200000f57620014d1903690602481600401359101620013c1565b908151620014df81620037f6565b91620014eb82620037f6565b93620014f662003748565b5060005b838110620015135760405180620006838888836200145d565b6200156090620015396001600160a01b0362001530838662002753565b51168562003763565b602081519101516200154c838a62002753565b5262001559828862002753565b5262002738565b620014fa565b50346200000f5760403660031901126200000f57602060ff620015b26200158c62000340565b6004356000526065845260406000209060018060a01b0316600052602052604060002090565b54166040519015158152f35b50346200000f5760003660031901126200000f57602060405160008152f35b50346200000f5760a03660031901126200000f576004356001600160401b0381116200000f5762000a086200161b620006839236906004016200074a565b9062001660604051916200162f8362000f09565b60243583526044356020840152604051936200164b8562000f09565b606435855260843560208601523691620013c1565b3362002779565b60405160208101907f504542424c453a504542424c455f44454c4547415445455f524f4c45000000008252601c8152620016a18162000f09565b51902090565b50346200000f5760003660031901126200000f576020620016c762001667565b604051908152f35b50346200000f5760403660031901126200000f576024356001600160401b0381116200000f576200170d62000579620005889236906004016200044f565b336004356200382e565b50346200000f5760a03660031901126200000f576004356200173862000340565b6001600160401b0391906044358381116200000f576200175d9036906004016200044f565b90606435916084359586116200000f5762000579620005656200055c6200052c620017d488620017cb89620017bc620005819b620005889f620017a59036906004016200044f565b979095620017b66200051662001667565b62002d0c565b8c8c6200054f368c8e62000fb1565b92369162000fb1565b9062002c3f565b50346200000f5760203660031901126200000f5762000588620017fd62000357565b6200087d62001667565b50346200000f5760403660031901126200000f57620005886004356200182c62000340565b908060005260656020526200089960016040600020015462001ba0565b50346200000f5760203660031901126200000f5760206040518181610e5e808201908282106001600160401b03831117620018bc575b62003af0833960043581520301906000f08015620018ac575b6001600160a01b0316620016c781620039f4565b620018b662001f5c565b62001898565b620018c662000ef2565b6200187f565b50346200000f576101403660031901126200000f57620018eb62000340565b6001600160401b03906044358281116200000f576200190f9036906004016200074a565b906064358481116200000f576200192b9036906004016200074a565b9190936084359586116200000f576200194d620005889636906004016200074a565b906200195862000490565b946101243597610104359760c4359660a43596600435620036ee565b50346200000f5760403660031901126200000f576040620019a16200199862000340565b60043562003763565b6020815191015182519182526020820152f35b60405160208101907f504542424c453a504542424c455f41444d494e5f524f4c450000000000000000825260188152620016a18162000f09565b50346200000f5760003660031901126200000f576020620016c7620019b4565b6020908160408183019282815285518094520193019160005b82811062001a36575050505090565b83516001600160a01b03168552938101939281019260010162001a27565b50346200000f5760203660031901126200000f5762001a8b60043562001a8562001a7f3383620033fe565b62002f8b565b6200338b565b602060018060a01b0382511691015190815162001aa88162001397565b9162001ab8604051938462000f50565b818352601f1962001ac98362001397565b0136602085013760009033810362001b86575b5060005b82811062001af8576040518062000683868262001a0e565b3362001b2662001b1a62001b0d848962002753565b516001600160a01b031690565b6001600160a01b031690565b0362001b3e575b62001b389062002738565b62001ae0565b9062001b7d62001b389162001b7762001b5c62001b0d868a62002753565b62001b68838962002753565b6001600160a01b039091169052565b62002738565b91905062001b2d565b62001b97915062001b688462002307565b60013862001adc565b600081815260656020908152604080832033845290915290205460ff161562001bc65750565b339062001bd262001f0e565b91603062001be08462002307565b53607862001bee8462002320565b5360295b6001811162001cab5762000c2562001c6662001c928662001c8362001c238862001c1d891562002373565b620023bf565b62001c5f60405195869462001c5f602087016017907f416363657373436f6e74726f6c3a206163636f756e742000000000000000000081520190565b9062001d03565b7001034b99036b4b9b9b4b733903937b6329607d1b815260110190565b03601f19810183528262000f50565b60405162461bcd60e51b815291829160048301620005d6565b9080600f62001ced9216601081101562001cf3575b6f181899199a1a9b1b9c1cb0b131b232b360811b901a62001ce2848762002332565b5360041c9162002354565b62001bf2565b62001cfd620022f0565b62001cc0565b9062001d18602092828151948592016200058a565b0190565b600090808252606560205260ff62001d4984604085209060018060a01b0316600052602052604060002090565b54161562001d5657505050565b8082526065602090815260408084206001600160a01b038616600090815292529020805460ff1916600117905533926001600160a01b0316917f2f8788117e7eff1d82e926ec794901d17c78024a50270940304540a733656f0d9080a4565b600090808252606560205260ff62001de284604085209060018060a01b0316600052602052604060002090565b541662001dee57505050565b8082526065602090815260408084206001600160a01b038616600090815292529020805460ff1916905533926001600160a01b0316917ff6391f5c32d9c69d2a47ea670b442974b53935d1edc7fd64eb21e047a839171b9080a4565b1562001e5257565b60405162461bcd60e51b815260206004820152602c60248201527f46756e6374696f6e206d7573742062652063616c6c6564207468726f7567682060448201526b19195b1959d85d1958d85b1b60a21b6064820152608490fd5b1562001eb457565b60405162461bcd60e51b815260206004820152602c60248201527f46756e6374696f6e206d7573742062652063616c6c6564207468726f7567682060448201526b6163746976652070726f787960a01b6064820152608490fd5b60405190606082018281106001600160401b0382111762001f3c575b604052602a8252604082602036910137565b62001f4662000ef2565b62001f2a565b908160209103126200000f575190565b506040513d6000823e3d90fd5b1562001f7157565b60405162461bcd60e51b815260206004820152602960248201527f45524331393637557067726164653a20756e737570706f727465642070726f786044820152681a58589b195555525160ba1b6064820152608490fd5b60809060208152602e60208201527f45524331393637557067726164653a206e657720696d706c656d656e7461746960408201526d6f6e206973206e6f74205555505360901b60608201520190565b803b156200204e576000805160206200494e83398151915280546001600160a01b0319166001600160a01b03909216919091179055565b60405162461bcd60e51b815260206004820152602d60248201527f455243313936373a206e657720696d706c656d656e746174696f6e206973206e60448201526c1bdd08184818dbdb9d1c9858dd609a1b6064820152608490fd5b90620020b58262002017565b604051600092906001600160a01b0382167fbc7cd75a20ee27fd9adebab32041f755214dbc6bffa90cc0225b39da2e5c2d3b8580a2825115801590620021c2575b62002102575b50505050565b813b156200217157509180826200215d9460208395519201905af4903d1562002168573d620021318162000f83565b9062002141604051928362000f50565b8152809160203d92013e5b620021566200222a565b9162002295565b5038808080620020fc565b5060606200214c565b62461bcd60e51b815260206004820152602660248201527f416464726573733a2064656c65676174652063616c6c20746f206e6f6e2d636f6044820152651b9d1c9858dd60d21b6064820152608490fd5b506001620020f6565b90620021d78262002017565b604051600092906001600160a01b0382167fbc7cd75a20ee27fd9adebab32041f755214dbc6bffa90cc0225b39da2e5c2d3b8580a28251158015906200222257620021025750505050565b5083620020f6565b60405190606082018281106001600160401b0382111762002285575b60405260278252660819985a5b195960ca1b6040837f416464726573733a206c6f772d6c6576656c2064656c65676174652063616c6c60208201520152565b6200228f62000ef2565b62002246565b90919015620022a2575090565b815115620022b35750805190602001fd5b60405162461bcd60e51b81526020600482015290819062000c25906024830190620005af565b50634e487b7160e01b600052601160045260246000fd5b50634e487b7160e01b600052603260045260246000fd5b60209080511562002316570190565b62001d18620022f0565b60219080516001101562002316570190565b9060209180518210156200234557010190565b6200234f620022f0565b010190565b801562002363575b6000190190565b6200236d620022d9565b6200235c565b156200237b57565b606460405162461bcd60e51b815260206004820152602060248201527f537472696e67733a20686578206c656e67746820696e73756666696369656e746044820152fd5b60405190608082018281106001600160401b038211176200246d575b6040526042825260603660208401376030620023f78362002307565b536078620024058362002320565b536041905b600182116200242057620005e991501562002373565b80600f62002456921660108110156200245d575b6f181899199a1a9b1b9c1cb0b131b232b360811b901a62001ce2848662002332565b906200240a565b62002467620022f0565b62002434565b6200247762000ef2565b620023db565b156200248557565b60405162461bcd60e51b815260206004820152602e60248201527f496e697469616c697a61626c653a20636f6e747261637420697320616c72656160448201526d191e481a5b9a5d1a585b1a5e995960921b6064820152608490fd5b94926200250192620024f8919592953691620013c1565b923691620013c1565b6200251460ff60005460081c16620025df565b6200251e62002640565b6200253d6200252c620019b4565b62002536620019b4565b90620039b0565b6200254b6200252c62001667565b815181519260005b828110620025c65750505060005b828110620025905750505062002586916200258091620005796200399d565b62003a03565b62000f8162002640565b620025c09062001b77620025a362001667565b6001600160a01b03620025b7848762002753565b51169062001d1c565b62002561565b620025d99062001b77620025a3620019b4565b62002553565b15620025e757565b60405162461bcd60e51b815260206004820152602b60248201527f496e697469616c697a61626c653a20636f6e7472616374206973206e6f74206960448201526a6e697469616c697a696e6760a81b6064820152608490fd5b62000f8160ff60005460081c16620025df565b156200265b57565b60405162461bcd60e51b815260206004820152603f60248201527f504542424c453a20494e495449414c2050454e554c54494d415445205348415260448201527f4544204b455920464f522043524541544f52204e4f54204f4e204355525645006064820152608490fd5b15620026ce57565b608460405162461bcd60e51b815260206004820152604060248201527f504542424c453a20494e495449414c2050454e554c54494d415445205348415260448201527f4544204b45592046524f4d2043524541544f52204e4f54204f4e2043555256456064820152fd5b600190600019811462002749570190565b62001d18620022d9565b602091815181101562002769575b60051b010190565b62002773620022f0565b62002761565b91604091929493948251956200278f8762000f09565b6001600160a01b038281168089526020808a018881527fcbc90404f5748a4e0e21546cf38f673bbc89035de34da94799a80032c0f7c2378054600181810190925560008181527f5d742fe17b690a6a54263c739da28c9f2a4b4ea30a4a18760a88124d555ecba68552998a209c518d546001600160a01b031916908716178d559b93978c9795969590949093929082019051908151916001600160401b0383116200298c575b6801000000000000000083116200297c575b848c8484549181865582821062002949575b5050506200286e910191600052602060002090565b8b5b8381106200292e57505050505090620028ba620028b48493620028a7620028a1620028c19751838801519062003a83565b62002653565b8651908701519062003a83565b620026c6565b856200299c565b855195855b878110620028d8575050505050505050565b8084620028ee62001b0d62002928948662002753565b620028fb86828a6200299c565b1687877fafdc90d17ca56b4356a578de0a136010326c69040edf668e0bd0cbb2a6b1d2658b80a462002738565b620028c6565b82516001600160a01b03168282015591850191840162002870565b879150858152868482209384019301905b8382106200296d57905086915062002859565b81558893508791018f6200295a565b6200298662000ef2565b62002847565b6200299662000ef2565b62002835565b620029e86001926020926000527fa9a3ac95344d2a0ca55bce67458270eda4f955247d37307c289a5ad533dd5535835260406000209060018060a01b0316600052602052604060002090565b92805184550151910155565b95919296620013486200055c620005e99b620017d4899c620017cb6200135c96898f9d8f9d620013909f8c9f8f839e620013419162002a366200051662001667565b62002a46896200052c8662002d0c565b3691620013c1565b1562002a5657565b60405162461bcd60e51b815260206004820152602160248201527f504542424c453a2044454c454741544f52204e4f4e434520494e434f525245436044820152601560fa1b6064820152608490fd5b1562002aad57565b60405162461bcd60e51b815260206004820152601b60248201527f504542424c453a20494e434f5252454354205349474e415455524500000000006044820152606490fd5b6005111562002afd57565b634e487b7160e01b600052602160045260246000fd5b62002b1e8162002af2565b8062002b275750565b62002b328162002af2565b6001810362002b805760405162461bcd60e51b815260206004820152601860248201527f45434453413a20696e76616c6964207369676e617475726500000000000000006044820152606490fd5b62002b8b8162002af2565b6002810362002bd95760405162461bcd60e51b815260206004820152601f60248201527f45434453413a20696e76616c6964207369676e6174757265206c656e677468006044820152606490fd5b8062002be760039262002af2565b1462002bef57565b60405162461bcd60e51b815260206004820152602260248201527f45434453413a20696e76616c6964207369676e6174757265202773272076616c604482015261756560f01b6064820152608490fd5b90604181511460001462002c6c5762000d3a916020820151906060604084015193015160001a9062002c76565b5050600090600290565b9291907f7fffffffffffffffffffffffffffffff5d576e7357a4501ddfe92f46681b20a0831162002d005791608094939160ff602094604051948552168484015260408301526060820152600093849182805260015afa1562002cf0575b81516001600160a01b0381161562002cea579190565b50600190565b62002cfa62001f5c565b62002cd4565b50505050600090600390565b6001600160a01b031660009081527f6e6fd72fa6bc337bb5cda754173b8a247151b73bb8c5caa8cd3ff5cc0fb5d639602052604090208054919062002d518362002738565b9055565b94620005e99662002e8894939562002e7b926040918251966020968862002d80898201928362001a0e565b039862002d96601f199a8b810183528262000f50565b51902084518881019b8c52909a9062002dbb81602084015b038b810183528262000f50565b519020845188810192835290919062002dd8816020840162002dae565b519020845188810193845290929062002df5816020840162002dae565b519020845188810194855290939062002e12816020840162002dae565b5190209351998a9788019b8c93909796959260e095926101008601997f4b67d9822586986e9743bb3e472c4d12b803dc51dfa2126f28827c04df19ae27875260018060a01b0316602087015260408601526060850152608084015260a083015260c08201520152565b0390810183528262000f50565b51902060fc5460fd546040519060208201927f8b73c3c69bb8fe3d512ecc4cf759cc79239f7b179b0ffacaa9a75d522b39400f8452604083015260608201524660808201523060a082015260a0815262002ee28162000f34565b5190209060405190602082019261190160f01b84526022830152604282015260428152608081018181106001600160401b0382111762002f26575b60405251902090565b62002f3062000ef2565b62002f1d565b929162002f438262001397565b9162002f53604051938462000f50565b829481845260208094019160051b81019283116200000f57905b82821062002f7b5750505050565b8135815290830190830162002f6d565b1562002f9357565b60405162461bcd60e51b81526020600482015260136024820152721411509093114e881393d50812539592551151606a1b6044820152606490fd5b1562002fd657565b60405162461bcd60e51b815260206004820152601f60248201527f504542424c453a20414c524541445920414343455054454420494e56495445006044820152606490fd5b156200302357565b60405162461bcd60e51b815260206004820152601e60248201527f504542424c453a20494e434f5252454354204152524159204c454e47544800006044820152606490fd5b156200307057565b60405162461bcd60e51b815260206004820152602960248201527f504542424c453a204b45592055504441544553204241534544204f4e2045585060448201526849524544204441544160b81b6064820152608490fd5b15620030cf57565b60405162461bcd60e51b815260206004820152603360248201527f504542424c453a20555044415445442050454e554c54494d41544520534841526044820152724544204b4559204e4f54204f4e20435552564560681b6064820152608490fd5b9493919290936200314662001a7f8688620033fe565b620031646200315e6200315a87896200348a565b1590565b62002fce565b83519362003175835186146200301b565b62003183845186146200301b565b620031e1602092620031a5846200319a8b6200338b565b01515188146200301b565b620031d9896000527f8471e74ec79a6a627ffb068d56c3a7a2ba329d4f8f6ad48361f5ab97a723e976602052604060002090565b541462003068565b62003216876000527f8471e74ec79a6a627ffb068d56c3a7a2ba329d4f8f6ad48361f5ab97a723e97660205242604060002055565b60005b858110620032ae5750505050505062003274908260009081527fdfde4fefba3f40b65db95f7d7b78bb7912d49bd3522f16b3080c777b834b7c7f602090815260408083206001600160a01b0390941683529290522060019055565b6200327f81620034d3565b620032875750565b7f592e3c6fdace72f3e6734c2c8db1148eaa911deabf73f1758bacc04a78509877600080a2565b80620032e2620032dc620032c762003329948862002753565b51620032d4848a62002753565b519062003a83565b620030c7565b62001b77620032f662001b0d838662002753565b62003302838862002753565b519062003310848a62002753565b516200331b62000f72565b928352878301528b6200299c565b62003219565b9060405191828154918282526020928383019160005283600020936000905b828210620033675750505062000f819250038362000f50565b85546001600160a01b0316845260019586019588955093810193909101906200334e565b606060206040516200339d8162000f09565b6000815201526000527f5d742fe17b690a6a54263c739da28c9f2a4b4ea30a4a18760a88124d555ecba66020526040600020620033f6600160405192620033e48462000f09565b818060a01b038154168452016200332f565b602082015290565b6000527f5d742fe17b690a6a54263c739da28c9f2a4b4ea30a4a18760a88124d555ecba6602052600162003438816040600020016200332f565b9182519260005b84811062003451575050505050600090565b6001600160a01b038062003466838562002753565b51169084161462003482576200347c9062002738565b6200343f565b505050905090565b60009081527fdfde4fefba3f40b65db95f7d7b78bb7912d49bd3522f16b3080c777b834b7c7f602090815260408083206001600160a01b03909416835292905220600190541490565b6020620034e0826200338b565b015190815191600091825b848110620034fd575050505050600190565b6200351e6001600160a01b0362003515838662002753565b5116836200348a565b1562003482576200352f9062002738565b620034eb565b98918362002a46620035b36200055c62000f819f8d9f8f908e9f8d9f9a8a9f9d9b91620035c79f948f93620008089f968f9e620035a39f8f9762000808620035ac92620035a3620017cb9b620017d49e620035936200051662001667565b62002a468d6200052c8a62002d0c565b95369162002f36565b93620035e1565b6001600160a01b038a811691161462002aa5565b9362003130565b906020620005e992818152019062001427565b909394620005e9966200363d620036d862003670620036c7620036636200367d7f813d001b4985725ee02ccd187e6788edf8e1409087a6d008738f68cd8c55d2849c6200365362002e889c9b6040519889916020830162001a0e565b039b62003653601f199d8e81018b528a62000f50565b60405194859160208301620035ce565b038c810185528462000f50565b038a810185528462000f50565b6040519a8b9860208a019d8e5260408a015260018060a01b03166060890152620036b6610100958660808b01526101208a0190620005af565b90898983030160a08a0152620005af565b90878783030160c0880152620005af565b9260e08501528301520390810183528262000f50565b999262002a46620035b36200055c62000f819f8c9f8f988d9f8c9f90899f91620035c79f9e9c8f93620008089f9e8f9d620035a39f9e8f978f620035ac92620035a3620005569b6200080893620035936200051662001667565b60405190620037578262000f09565b60006020838281520152565b90620037b7916200377362003748565b506000527fa9a3ac95344d2a0ca55bce67458270eda4f955247d37307c289a5ad533dd553560205260406000209060018060a01b0316600052602052604060002090565b600160405191604083018381106001600160401b03821117620037e6575b604052805483520154602082015290565b620037f062000ef2565b620037d5565b90620038028262001397565b62003811604051918262000f50565b828152809262003824601f199162001397565b0190602036910137565b906200383a82620034d3565b15620038db576200384c81836200348a565b1562003897576040516001600160a01b03909116927fa66d2acaa4ab888d29c2bea69414e474640889068bbaf164893c163da74902e791908190620038929082620005d6565b0390a3565b606460405162461bcd60e51b815260206004820152602060248201527f504542424c453a2053454e444552204e4f542041205041525449434950414e546044820152fd5b60405162461bcd60e51b815260206004820152602f60248201527f504542424c453a205041525449434950414e54532059455420544f204143434560448201526e50542047524f555020494e5649544560881b6064820152608490fd5b9192620005e993602081519101206040519260208401947f612cc3a826ba90c4d0901e72e7a72686217029ace0aeacdb35a763b9ba49cf828652604085015260018060a01b03166060840152608083015260a082015260a0815262002e888162000f34565b6200258660ff60005460081c16620025df565b80600052606560205260016040600020015490826001604060002001557fbd79b86ffe0ab8e8776151514217cd7cacd52c909f66475c3af44e129f0b00ff600080a4565b62000f819062000cb362001667565b60ff60005460081c1662003a1781620025df565b60405162003a258162000f09565b6006815262003a44602082019265504542424c4560d01b8452620025df565b51902090602081519101918183209060fc5560fd5560011b9051177f521e4caddd81fbdd5f556a9ab5c2a4923bf4e6832e3978f3ad043ffaf5444a6855565b8015801562003ade575b801562003ad5575b801562003ac4575b62003abd576007906401000003d019918282818181950909089180091490565b5050600090565b506401000003d01982101562003a9d565b50811562003a95565b506401000003d01981101562003a8d56fe60803461006357601f610e5e38819003918201601f19168301916001600160401b03831184841017610068578084926020946040528339810103126100635751600080546001600160a01b03191633179055600255604051610ddf908161007f8239f35b600080fd5b634e487b7160e01b600052604160045260246000fdfe608060408181526004908136101561002d575b505050361561002557610023610bfd565b005b610023610bfd565b600092833560e01c9081630d5399d514610a1e57508063155dd5ee1461097b57806324600fc3146108dd57806325ccdaf7146107a85780632958cdf6146106ab5780632ba511341461068c5780635ed1945c14610664578063670c7ded146104c057806378f3689b14610383578063a26759cb1461036c578063bae5043514610279578063c097d03d146102415763ec18284d03610012573461022057826003196101403682011261023d576100e1610b16565b9267ffffffffffffffff604435818111610239576101029036908801610b80565b93906064358381116102355761011b9036908a01610b80565b9093608435908111610231576101349036908b01610b80565b92909961013f610b70565b5a9b60018060a01b0396878c541696873b1561022d578c998e978b978d519e8f9c8d9b8c9a63ec18284d60e01b8c528035908c01521660248a015260448901610140905261014489019061019292610c31565b90848883030160648901526101a692610c9b565b918583030160848601526101b992610c9b565b9060a43560a484015260c43560c484015260ff1660e483015261010480359083015261012480359083015203925af1908115610224575061020c575b5050610209913a905a900302903390610d62565b80f35b61021590610bb1565b6102205782386101f5565b8280fd5b513d84823e3d90fd5b8c80fd5b8780fd5b8680fd5b8480fd5b5080fd5b83823461023d57602036600319011261023d5760209181906001600160a01b03610269610b2c565b1681526001845220549051908152f35b503461022057826003199260a08436011261023d57610296610b16565b926044359467ffffffffffffffff95868111610239576102b99036908501610b42565b939096608435908111610368576102d39036908301610b42565b9790975a9860018060a01b03938489541693843b156103645789968b948894610329610340948c519d8e9b8c9a8b9963bae5043560e01b8b528035908b015216602489015260a0604489015260a4880191610c7a565b926064356064870152858403016084860152610c7a565b03925af1908115610224575061020c575050610209913a905a900302903390610d62565b8980fd5b8580fd5b838060031936011261038057610209610bfd565b80fd5b5082903461023d576101409283600319360112610220576103a2610b2c565b9360243567ffffffffffffffff8111610239576103c460209136908501610b80565b6103cf949194610b70565b9487895a9760ff61040e60018060a01b039586865416978d519b8c9a8b998a986378f3689b60e01b8a5216908801526024870152610144860191610c31565b9160443560448501526064356064850152608435608485015260a43560a485015260c43560c48501521660e483015261010480359083015261012480359083015203925af19384156104b5579361047c575b50602093610476913a905a900302903390610d62565b51908152f35b9092506020813d82116104ad575b8161049760209383610bdb565b810103126104a85751916020610460565b600080fd5b3d915061048a565b8351903d90823e3d90fd5b509034610220576020806003193601126106605781359261ffff84168094036102395784548151632b393ee960e21b81526001600160a01b039091169083818681855afa908115610629578791610633575b5082519063248a9ca360e01b8252858201528381602481855afa9081156106295790849188916105fa575b506044845180948193632474521560e21b8352898301523360248301525afa9081156105f05786916105ba575b50156105795750505060025580f35b5162461bcd60e51b815291820152601e60248201527f504542424c452044454c4547415445453a204e4f5420414e2041444d494e0000604482015260649150fd5b90508281813d83116105e9575b6105d18183610bdb565b8101031261036857518015158103610368573861056a565b503d6105c7565b82513d88823e3d90fd5b82819392503d8311610622575b6106118183610bdb565b810103126104a8578390513861053d565b503d610607565b83513d89823e3d90fd5b90508381813d8311610659575b61064a8183610bdb565b810103126104a8575138610512565b503d610640565b8380fd5b83823461023d578160031936011261023d57905490516001600160a01b039091168152602090f35b83823461023d578160031936011261023d576020906002549051908152f35b5082903461023d576003196101003682018113610660576106ca610b2c565b9467ffffffffffffffff92602435848111610235576106ec9036908401610b80565b91909460e4359081116102315791878961078289946107116020989736908901610b42565b9061074b5a9c60018060a01b0398898954169a519d8e9c8d9b8c9a6314ac66fb60e11b8c5216908a01526024890152610104880191610c31565b9260443560448701526064356064870152608435608487015260a43560a487015260c43560c48701528584030160e4860152610c7a565b03925af19384156104b5579361047c5750602093610476913a905a900302903390610d62565b50346102205761010036600319011261022057826107c4610b16565b9167ffffffffffffffff90604435828111610660576107e69036908701610b80565b92606435818111610368576107fe9036908901610b80565b608493919335838111610231576108189036908b01610b80565b92909360e4359081116108d9576108329036908c01610b42565b9a905a9b60018060a01b0396878c541696873b1561022d578c998e978b978d519e8f9c8d9b8c9a6325ccdaf760e01b8c528035908c01521660248a015260448901610100905261010489019061088792610c31565b9060031988830301606489015261089d92610c9b565b906003198683030160848701526108b392610c9b565b9060a43560a485015260c43560c48501526003198483030160e485015261034092610c7a565b8880fd5b50346102205782600319360112610220573383526001602052808320549182156109285750828080610209948180953382526001602052812055335af1610922610cbf565b50610cff565b6020608492519162461bcd60e51b8352820152602860248201527f504542424c452044454c4547415445453a204445504f5349544f5220484153206044820152674e4f2046554e445360c01b6064820152fd5b50346102205760203660031901126102205781359182156109c25750828080610209948194338352600160205282206109b5828254610d55565b9055335af1610922610cbf565b6020608492519162461bcd60e51b8352820152603160248201527f504542424c452044454c4547415445453a2056414c5545204d5553542042452060448201527047524541544552205448414e205a45524f60781b6064820152fd5b84929150346102205760e036600319011261022057610a3b610b16565b9160443567ffffffffffffffff811161023957610a5b9036908701610b42565b95906084359060ff8216809203610235575a9760018060a01b038089541694853b15610364578794610ab78b9795879589958795630d5399d560e01b87528035908701528d16602486015260e0604486015260e4850191610c7a565b906064356064840152608483015260a43560a483015260c43560c483015203925af1908115610b0d5750610afa575b5061020991923a905a900302903390610d62565b91610b0761020993610bb1565b91610ae6565b513d85823e3d90fd5b602435906001600160a01b03821682036104a857565b600435906001600160a01b03821682036104a857565b9181601f840112156104a85782359167ffffffffffffffff83116104a857602083818601950101116104a857565b60e4359060ff821682036104a857565b9181601f840112156104a85782359167ffffffffffffffff83116104a8576020808501948460051b0101116104a857565b67ffffffffffffffff8111610bc557604052565b634e487b7160e01b600052604160045260246000fd5b90601f8019910116810190811067ffffffffffffffff821117610bc557604052565b3360005260016020526040600020805490348201809211610c1b5755565b634e487b7160e01b600052601160045260246000fd5b9190808252602080920192916000805b838210610c5057505050505090565b9091929394853560018060a01b038116809103610220578152830194830193929160010190610c41565b908060209392818452848401376000828201840152601f01601f1916010190565b81835290916001600160fb1b0383116104a85760209260051b809284830137010190565b3d15610cfa573d9067ffffffffffffffff8211610bc55760405191610cee601f8201601f191660200184610bdb565b82523d6000602084013e565b606090565b15610d0657565b60405162461bcd60e51b815260206004820152602160248201527f504542424c452044454c4547415445453a205749544844524157204641494c456044820152601160fa1b6064820152608490fd5b91908203918211610c1b57565b9091612710600254820204019160018060a01b0380921660005260016020526040600020610d91848254610d55565b9055166000526001602052604060002090815401905556fea26469706673582212203c2e1a02a90d9ffd0e551b83bfc9d5464b2da7a4e4346dbaffdfa4170b0d2df664736f6c63430008110033360894a13ba1a3210667c828492db98dca3e2076cc3735a920a3ca505d382bbca2646970667358221220185b1f4d97653da39fa4bfbd92b33d5de1f16f7a4f66344c921b624f2a755f8464736f6c63430008110033",
    "linkReferences": {}
  },
  "methodIdentifiers": {
    "DEFAULT_ADMIN_ROLE()": "a217fddf",
    "PEBBLE_ADMIN_ROLE()": "f45dd5b2",
    "PEBBLE_DELEGATEE_ROLE()": "ace4fba4",
    "acceptGroupInvite(uint256,address[],uint256[],uint256[],uint256)": "102b54ca",
    "acceptGroupInviteForDelegator(uint256,address,address[],uint256[],uint256[],uint256,uint256,bytes)": "25ccdaf7",
    "acceptGroupInviteForDelegator(uint256,address,address[],uint256[],uint256[],uint256,uint256,uint8,bytes32,bytes32)": "ec18284d",
    "createGroup(address[],uint256,uint256,uint256,uint256)": "a558a16f",
    "createGroupForDelegator(address,address[],uint256,uint256,uint256,uint256,uint256,bytes)": "2958cdf6",
    "createGroupForDelegator(address,address[],uint256,uint256,uint256,uint256,uint256,uint8,bytes32,bytes32)": "78f3689b",
    "deployAndAssignDelegateeContract(uint256)": "dec64723",
    "didParticipantAcceptGroupInvite(uint256,address)": "0011e037",
    "getDelegatorNonce(address)": "6ab6cd6c",
    "getGroupPenultimateSharedKeyLastUpdateTimestamp(uint256)": "004fd168",
    "getOtherGroupParticipants(uint256)": "fa855a02",
    "getParticipantGroupPenultimateSharedKey(uint256,address)": "f0f27086",
    "getParticipantsGroupPenultimateSharedKey(uint256,address[])": "8bd03cdb",
    "getRoleAdmin(bytes32)": "248a9ca3",
    "getVersion()": "0d8e6e2c",
    "grantPebbleAdminRole(address)": "3bb5d660",
    "grantPebbleDelegateeRole(address)": "17ad43b6",
    "grantRole(bytes32,address)": "2f2ff15d",
    "hasRole(bytes32,address)": "91d14854",
    "initialize(string,address[],address[])": "4f11b8a7",
    "proxiableUUID()": "52d1902d",
    "reinitialize(string,address[],address[])": "42456dea",
    "renounceRole(bytes32,address)": "36568abe",
    "revokePebbleAdminRole(address)": "1d63e3b8",
    "revokePebbleDelegateeRole(address)": "c9776e6b",
    "revokeRole(bytes32,address)": "d547741f",
    "sendMessageInGroup(uint256,bytes)": "b50888ae",
    "sendMessageInGroupForDelegator(uint256,address,bytes,uint256,bytes)": "bae50435",
    "sendMessageInGroupForDelegator(uint256,address,bytes,uint256,uint8,bytes32,bytes32)": "0d5399d5",
    "supportsInterface(bytes4)": "01ffc9a7",
    "upgradeTo(address)": "3659cfe6",
    "upgradeToAndCall(address,bytes)": "4f1ef286"
  },
  "id": 25
}